{"contracts/AgriChain.sol":{"AgriChain":{"abi":[{"inputs":[],"stateMutability":"nonpayable","type":"constructor"},{"anonymous":false,"inputs":[{"indexed":true,"internalType":"uint256","name":"batchId","type":"uint256"},{"indexed":false,"internalType":"string","name":"productName","type":"string"},{"indexed":false,"internalType":"address","name":"farmer","type":"address"}],"name":"BatchCreated","type":"event"},{"anonymous":false,"inputs":[{"indexed":true,"internalType":"uint256","name":"batchId","type":"uint256"},{"indexed":false,"internalType":"string","name":"reason","type":"string"}],"name":"FraudDetected","type":"event"},{"anonymous":false,"inputs":[{"indexed":true,"internalType":"uint256","name":"batchId","type":"uint256"},{"indexed":false,"internalType":"uint256","name":"oldPrice","type":"uint256"},{"indexed":false,"internalType":"uint256","name":"newPrice","type":"uint256"},{"indexed":false,"internalType":"address","name":"actor","type":"address"}],"name":"PriceUpdated","type":"event"},{"anonymous":false,"inputs":[{"indexed":true,"internalType":"address","name":"user","type":"address"},{"indexed":false,"internalType":"enum AgriChain.Role","name":"role","type":"uint8"}],"name":"RoleAssigned","type":"event"},{"anonymous":false,"inputs":[{"indexed":true,"internalType":"uint256","name":"batchId","type":"uint256"},{"indexed":false,"internalType":"enum AgriChain.Stage","name":"newStage","type":"uint8"},{"indexed":false,"internalType":"address","name":"actor","type":"address"}],"name":"StageUpdated","type":"event"},{"inputs":[{"internalType":"address","name":"_user","type":"address"},{"internalType":"enum AgriChain.Role","name":"_role","type":"uint8"}],"name":"assignRole","outputs":[],"stateMutability":"nonpayable","type":"function"},{"inputs":[],"name":"batchCount","outputs":[{"internalType":"uint256","name":"","type":"uint256"}],"stateMutability":"view","type":"function"},{"inputs":[{"internalType":"uint256","name":"","type":"uint256"}],"name":"batches","outputs":[{"internalType":"uint256","name":"id","type":"uint256"},{"internalType":"string","name":"productName","type":"string"},{"internalType":"string","name":"farmerName","type":"string"},{"internalType":"string","name":"originLocation","type":"string"},{"internalType":"uint256","name":"quantity","type":"uint256"},{"internalType":"uint256","name":"farmerPrice","type":"uint256"},{"internalType":"uint256","name":"currentPrice","type":"uint256"},{"internalType":"uint256","name":"harvestDate","type":"uint256"},{"internalType":"uint256","name":"createdAt","type":"uint256"},{"internalType":"bool","name":"exists","type":"bool"},{"internalType":"bool","name":"isFlagged","type":"bool"},{"internalType":"string","name":"flagReason","type":"string"},{"internalType":"uint256","name":"trustScore","type":"uint256"}],"stateMutability":"view","type":"function"},{"inputs":[{"internalType":"uint256","name":"_batchId","type":"uint256"},{"internalType":"string","name":"_location","type":"string"},{"internalType":"string","name":"_notes","type":"string"}],"name":"confirmSale","outputs":[],"stateMutability":"nonpayable","type":"function"},{"inputs":[{"internalType":"string","name":"_productName","type":"string"},{"internalType":"string","name":"_farmerName","type":"string"},{"internalType":"string","name":"_location","type":"string"},{"internalType":"uint256","name":"_quantity","type":"uint256"},{"internalType":"uint256","name":"_farmerPrice","type":"uint256"},{"internalType":"uint256","name":"_harvestDate","type":"uint256"}],"name":"createBatch","outputs":[{"internalType":"uint256","name":"","type":"uint256"}],"stateMutability":"nonpayable","type":"function"},{"inputs":[{"internalType":"uint256","name":"_batchId","type":"uint256"}],"name":"getBatch","outputs":[{"components":[{"internalType":"uint256","name":"id","type":"uint256"},{"internalType":"string","name":"productName","type":"string"},{"internalType":"string","name":"farmerName","type":"string"},{"internalType":"string","name":"originLocation","type":"string"},{"internalType":"uint256","name":"quantity","type":"uint256"},{"internalType":"uint256","name":"farmerPrice","type":"uint256"},{"internalType":"uint256","name":"currentPrice","type":"uint256"},{"internalType":"uint256","name":"harvestDate","type":"uint256"},{"internalType":"uint256","name":"createdAt","type":"uint256"},{"internalType":"bool","name":"exists","type":"bool"},{"internalType":"bool","name":"isFlagged","type":"bool"},{"internalType":"string","name":"flagReason","type":"string"},{"internalType":"uint256","name":"trustScore","type":"uint256"}],"internalType":"struct AgriChain.ProductBatch","name":"","type":"tuple"}],"stateMutability":"view","type":"function"},{"inputs":[{"internalType":"uint256","name":"_batchId","type":"uint256"}],"name":"getPriceHistory","outputs":[{"components":[{"internalType":"uint256","name":"price","type":"uint256"},{"internalType":"address","name":"updatedBy","type":"address"},{"internalType":"uint256","name":"timestamp","type":"uint256"},{"internalType":"string","name":"note","type":"string"}],"internalType":"struct AgriChain.PriceHistory[]","name":"","type":"tuple[]"}],"stateMutability":"view","type":"function"},{"inputs":[{"internalType":"uint256","name":"_batchId","type":"uint256"}],"name":"getSupplyChainSteps","outputs":[{"components":[{"internalType":"enum AgriChain.Stage","name":"stage","type":"uint8"},{"internalType":"address","name":"actor","type":"address"},{"internalType":"string","name":"location","type":"string"},{"internalType":"uint256","name":"timestamp","type":"uint256"},{"internalType":"string","name":"notes","type":"string"}],"internalType":"struct AgriChain.SupplyChainStep[]","name":"","type":"tuple[]"}],"stateMutability":"view","type":"function"},{"inputs":[{"internalType":"address","name":"_user","type":"address"}],"name":"getUserRole","outputs":[{"internalType":"enum AgriChain.Role","name":"","type":"uint8"}],"stateMutability":"view","type":"function"},{"inputs":[],"name":"owner","outputs":[{"internalType":"address","name":"","type":"address"}],"stateMutability":"view","type":"function"},{"inputs":[{"internalType":"uint256","name":"","type":"uint256"},{"internalType":"uint256","name":"","type":"uint256"}],"name":"priceHistories","outputs":[{"internalType":"uint256","name":"price","type":"uint256"},{"internalType":"address","name":"updatedBy","type":"address"},{"internalType":"uint256","name":"timestamp","type":"uint256"},{"internalType":"string","name":"note","type":"string"}],"stateMutability":"view","type":"function"},{"inputs":[{"internalType":"bytes32","name":"","type":"bytes32"}],"name":"productHashes","outputs":[{"internalType":"bool","name":"","type":"bool"}],"stateMutability":"view","type":"function"},{"inputs":[{"internalType":"uint256","name":"","type":"uint256"},{"internalType":"uint256","name":"","type":"uint256"}],"name":"supplyChainSteps","outputs":[{"internalType":"enum AgriChain.Stage","name":"stage","type":"uint8"},{"internalType":"address","name":"actor","type":"address"},{"internalType":"string","name":"location","type":"string"},{"internalType":"uint256","name":"timestamp","type":"uint256"},{"internalType":"string","name":"notes","type":"string"}],"stateMutability":"view","type":"function"},{"inputs":[{"internalType":"uint256","name":"_batchId","type":"uint256"},{"internalType":"uint256","name":"_newPrice","type":"uint256"},{"internalType":"string","name":"_notes","type":"string"}],"name":"updateRetailPrice","outputs":[],"stateMutability":"nonpayable","type":"function"},{"inputs":[{"internalType":"uint256","name":"_batchId","type":"uint256"},{"internalType":"string","name":"_location","type":"string"},{"internalType":"string","name":"_notes","type":"string"}],"name":"updateShipment","outputs":[],"stateMutability":"nonpayable","type":"function"},{"inputs":[{"internalType":"address","name":"","type":"address"}],"name":"userRoles","outputs":[{"internalType":"enum AgriChain.Role","name":"","type":"uint8"}],"stateMutability":"view","type":"function"}],"evm":{"bytecode":{"linkReferences":{},"object":"6080806040523461004457600680546001600160a01b031916339081179091556000908152600360205260409020805460ff19166001179055612034908161004a8239f35b600080fdfe608080604052600436101561001357600080fd5b60003560e01c90816306f13056146119035750806327820851146104bd5780632aca09ca146118d257806345570c7d1461138757806349799c77146112e55780634bd738c71461126957806353105b04146111005780635ac4428214610ef857806361e6a02714610722578063630a195b1461065a578063742a7d3b1461050357806374d5e100146104bd5780638da5cb5b14610494578063b32c4d8d14610384578063f52a5839146102055763fd1a98a5146100cf57600080fd5b346102005760208060031936011261020057600435600052600290818152604060002080546100fd81611fe7565b9361010b60405195866119c1565b81855260009283528383208486019391845b8484106101ad57604080518881528951818a01819052600092600582901b83018101918a918c9085015b8287106101545785850386f35b90919293828061019d600193603f198a8203018652885180518252858060a01b038482015116848301526040810151604083015260608091015191608080928201520190611b83565b9601920196019592919092610147565b60048760019260409a999a516101c28161196f565b86548152848060a01b038588015416838201528587015460408201526101ea60038801611aba565b606082015281520193019301929196959661011d565b600080fd5b34610200576020806003193601126102005760043560005260019081815260406000209182549161023583611fe7565b9261024360405194856119c1565b8084528184018095600052826000206000915b83831061030e5750505050604051928184019082855251809152604084019160408260051b86010195926000905b8382106102915786880387f35b909192939483806102fd839a603f198b8203018652895180516102b381611934565b8252808401516001600160a01b03168483015260408082015160a09184018290526102e091840190611b83565b916060808301519082015260808092015191818403910152611b83565b999701959493919091019101610284565b9460048582999760409997995161032481611954565b855460ff811661033381611934565b825260081c6001600160a01b031683820152610350868601611aba565b60408201526002860154606082015261036b60038701611aba565b6080820152815201920192019190969496959395610256565b3461020057602036600319011261020057600435600052600060205260406000208054600182016103b490611aba565b916103c160028201611aba565b906103ce60038201611aba565b60048201549060058301546006840154600785015490600886015492600987015494600a88016103fd90611aba565b97600b0154986040519b8c9b8c528b6101a06020819201528c0161042091611b83565b8b810360408d015261043191611b83565b8a810360608c015261044291611b83565b9560808a015260a089015260c088015260e087015261010086015260ff8116151561012086015260081c60ff16151561014085015283810361016085015261048991611b83565b906101808301520390f35b34610200576000366003190112610200576006546040516001600160a01b039091168152602090f35b34610200576020366003190112610200576001600160a01b036104de61191e565b166000526003602052602060ff60406000205416604051906104ff81611934565b8152f35b346102005761051136611ba8565b90336000526020916003835261053a600460ff6040600020541661053481611934565b14611bf1565b836000526000835261055660ff60096040600020015416611fa4565b8360005260018352604060002090815460001981019081116106445760ff61058060039285611a4e565b50541661058c81611934565b036105f3576040927f20f13d5051a99e5a3e1fe067b2dad576cc3253d70a33e0c746becebd65d4baa494926105e4928551926105c784611954565b600484523386850152868401524260608401526080830152611c8d565b815190600482523390820152a2005b60405162461bcd60e51b815260048101859052602360248201527f4261746368206d7573742062652061742072657461696c206265666f72652073604482015262616c6560e81b6064820152608490fd5b634e487b7160e01b600052601160045260246000fd5b346102005760403660031901126102005761067361191e565b602435906005821015610200576006546001600160a01b039190821633036106f1577f4ac36fa53f167ceb85964be512e01de2a3b8bdb9862f917da079deeeff689b38916020911692836000526003825260406000206106d282611934565b60ff1981541660ff8316179055604051906106ec81611934565b8152a2005b60405162461bcd60e51b81526020600482015260096024820152682737ba1037bbb732b960b91b6044820152606490fd5b346102005760c0366003190112610200576004356001600160401b038111610200576107529036906004016119e2565b6024356001600160401b038111610200576107719036906004016119e2565b6044356001600160401b038111610200576107909036906004016119e2565b3360005260036020526107b0600160ff6040600020541661053481611934565b60405161080360608286516107cc816020840160208b01611b60565b86519082016107e2826020830160208b01611b60565b0160a4356020820152606435604082015260408282030182520301826119c1565b602081519101209283600052600460205260ff604060002054169060055492600019841461064457600184016005558215610ecc576040518060608101106001600160401b03606083011117610d365760608101604052602281527f506f74656e7469616c206475706c696361746520656e74727920646574656374602082015261195960f21b6040820152945b8315610ec35760ff60325b604051976108a98961198a565b6001880189528560208a01528360408a01528460608a015260643560808a015260843560a08a015260843560c08a015260a43560e08a0152426101008a015260016101208a01528615156101408a0152610160890152166101808701526001850160005260006020526040600020968651885560208701518051906001600160401b038211610d3657819061094e828c600161094781830154611a80565b9101611c48565b602090601f8311600114610e5157600092610e46575b50508160011b916000199060031b1c19161760018901555b60408701518051906001600160401b038211610d365781906109a7828c600261094781830154611a80565b602090601f8311600114610dd457600092610dc9575b50508160011b916000199060031b1c19161760028901555b60608701518051906001600160401b038211610d36578190610a00828c600361094781830154611a80565b602090601f8311600114610d5757600092610d4c575b50508160011b916000199060031b1c19161760038901555b6080870151600489015560a0870151600589015560c0870151600689015560e087015160078901556101008701516008890155600988016101208801511515815460ff61ff006101408c0151151560081b1692169061ffff1916171790556101608701519788516001600160401b038111610d3657602099610ac082610ab7600a860154611a80565b600a8601611c48565b8a90601f8311600114610cbc579982600b9361018093610b969a9b9c9d600092610cb1575b50508160011b916000199060031b1c191617600a8501555b0151910155600052600487526040600020600160ff198254161790556001860160005260018752604060002090610b6b602d60405180936c02430b93b32b9ba32b210313c9609d1b8c830152610b5b815180928e8686019101611b60565b810103600d8101845201826119c1565b60405192610b7884611954565b60008452338985015260408401524260608401526080830152611c8d565b6001830160005260028452610bfc604060002060405190610bb68261196f565b60843582523387830152426040830152604051610bd2816119a6565b6014815273496e697469616c206661726d657220707269636560601b888201526060830152611eac565b7f195a26ecf0c9b8fb957ecc3a7c029ce84849279de600e16f205ee789052052b6610c3260405192604084526040840190611b83565b9133868201528060018601930390a2610c51575b600160405191018152f35b6040518281526017838201527f4475706c69636174652070726f6475637420656e74727900000000000000000060408201527f9ec2f02a52d1cbe4470ccf0ba921147efcd4728eb6330dcf53a326124e35caf660606001840192a2610c46565b015190508e80610ae5565b90600a84016000528b6000209160005b601f1985168110610d1f57508361018093610b969a9b9c9d93600193600b97601f19811610610d06575b505050811b01600a850155610afd565b015160001960f88460031b161c191690558e8080610cf6565b91928d600181928685015181550194019201610ccc565b634e487b7160e01b600052604160045260246000fd5b015190508a80610a16565b925060038b016000526020600020906000935b601f1984168510610dae576001945083601f19811610610d95575b505050811b016003890155610a2e565b015160001960f88460031b161c191690558a8080610d85565b81810151835560209485019460019093019290910190610d6a565b015190508a806109bd565b925060028b016000526020600020906000935b601f1984168510610e2b576001945083601f19811610610e12575b505050811b0160028901556109d5565b015160001960f88460031b161c191690558a8080610e02565b81810151835560209485019460019093019290910190610de7565b015190508a80610964565b925060018b016000526020600020906000935b601f1984168510610ea8576001945083601f19811610610e8f575b505050811b01600189015561097c565b015160001960f88460031b161c191690558a8080610e7f565b81810151835560209485019460019093019290910190610e64565b60ff606461089c565b6040518060208101106001600160401b03602083011117610d3657602081016040526000815294610891565b34610200576020366003190112610200576000610180604051610f1a8161198a565b82815260606020820152606060408201526060808201528260808201528260a08201528260c08201528260e08201528261010082015282610120820152826101408201526060610160820152015260043560005260006020526040600020600b60405191610f878361198a565b80548352610f9760018201611aba565b6020840152610fa860028201611aba565b6040840152610fb960038201611aba565b606084015260048101546080840152600581015460a0840152600681015460c0840152600781015460e0840152600881015461010084015260ff6009820154818116151561012086015260081c16151561014084015261101b600a8201611aba565b6101608401520154610180820152604051809160208252805160208301526101806110f361108c61107661106060208601516101a060408901526101c0880190611b83565b6040860151878203601f19016060890152611b83565b6060850151868203601f19016080880152611b83565b608084015160a086015260a084015160c086015260c084015160e086015260e084015161010086015261010084015161012086015261012084015115156101408601526101408401511515610160860152610160840151601f198683030184870152611b83565b9101516101a08301520390f35b346102005761110e36611ba8565b903360005260209060038252611131600260ff6040600020541661053481611934565b836000526000825261114d60ff60096040600020015416611fa4565b83600052600182526040600020805460001981019081116106445761117460ff9183611a4e565b50541661118081611934565b801590818015611256575b1561121c5792604094926111fe926111c47f20f13d5051a99e5a3e1fe067b2dad576cc3253d70a33e0c746becebd65d4baa49896611934565b15611214576001945b8651926111d984611954565b6111e287611934565b8684523386850152878401524260608401526080830152611c8d565b82519161120a81611934565b82523390820152a2005b6002946111cd565b60405162461bcd60e51b815260048101869052601260248201527124b73b30b634b21039ba32b81037b93232b960711b6044820152606490fd5b5061126081611934565b6001811461118b565b346102005761127736611a38565b90600052600260205260406000209081548110156102005761129891611a4e565b5080546112e160018060a01b03600184015416926112bd600360028301549201611aba565b90604051948594855260208501526040840152608060608401526080830190611b83565b0390f35b34610200576112f336611a38565b90600052600160205260406000209081548110156102005761131491611a4e565b508054906112e160ff83169161132c60018201611aba565b611374611340600360028501549401611aba565b9160405196866113508998611934565b875260081c6001600160a01b0316602087015260a060408701819052860190611b83565b9160608501528382036080850152611b83565b34610200576060366003190112610200576044356001600160401b038111610200576113b79036906004016119e2565b3360005260036020526113d7600360ff6040600020541661053481611934565b60043560005260006020526113f660ff60096040600020015416611fa4565b60043560005260006020526040600020600681015491600583028381046005148415171561064457602435116117be575b6004356000526001602052604060002091825460001981019081116106445761145260ff9185611a4e565b50541661145e81611934565b15611571575b6114fe926114c69160066024359101556040519061148182611954565b60038252336020830152604051611497816119a6565b600c81526b52657461696c2053746f726560a01b60208201526040830152426060830152836080830152611c8d565b60043560005260026020526040600020604051916114e38361196f565b60243583523360208401524260408401526060830152611eac565b60405190815260243560208201523360408201527f4f0aa5fab7aa20059cc56368985fcf440c02c1d0229156bcfefad462cae1893d606060043592a2604051600381523360208201527f20f13d5051a99e5a3e1fe067b2dad576cc3253d70a33e0c746becebd65d4baa4604060043592a2005b60098101805461ff001916610100179055604051600a82015481600061159683611a80565b60018416801561179c57600114611755575b506115e291817f207c204d697373696e67206469737472696275746f7220737465700000000000601b9352036004198101855201836119c1565b8151916001600160401b038311610d365761160a836116018194611a80565b600a8701611c48565b602090601f83116001146116e3576000926116d8575b50508160011b916000199060031b1c191617600a8201555b600b810192835491601483116000146116c7576013198301928311610644576114fe946114c693905b5560405160208152601a60208201527f4d697373696e6720737570706c7920636861696e20737465707300000000000060408201527f9ec2f02a52d1cbe4470ccf0ba921147efcd4728eb6330dcf53a326124e35caf6606060043592a291509250611464565b6114c692506114fe94600090611661565b015190508680611620565b9250600a84016000526020600020906000935b601f198416851061173a576001945083601f19811610611721575b505050811b01600a820155611638565b015160001960f88460031b161c19169055868080611711565b818101518355602094850194600190930192909101906116f6565b915050600a84016000528260206000206000905b83821061178257509091820160200190506115e26115a8565b602091925080600191548385890101520191018491611769565b5060ff19841660208085019190915281151590910283010190506115e26115a8565b6009820161010061ff0019825416179055600a82016117dd8154611a80565b601f81116118ad575b50605d81556000526d3530302520696e6372656173652960901b600160206000207f41626e6f726d616c207072696365207370696b6520646574656374656420283e81550155600b82018054601e81116000146118a457601d19810190811161064457905b5560405160208152601460208201527341626e6f726d616c207072696365207370696b6560601b60408201527f9ec2f02a52d1cbe4470ccf0ba921147efcd4728eb6330dcf53a326124e35caf6606060043592a2611427565b5060009061184b565b6118cc90826000526002601f6020600020920160051c82019101611c31565b846117e6565b34610200576020366003190112610200576004356000526004602052602060ff604060002054166040519015158152f35b34610200576000366003190112610200576020906005548152f35b600435906001600160a01b038216820361020057565b6005111561193e57565b634e487b7160e01b600052602160045260246000fd5b60a081019081106001600160401b03821117610d3657604052565b608081019081106001600160401b03821117610d3657604052565b6101a081019081106001600160401b03821117610d3657604052565b604081019081106001600160401b03821117610d3657604052565b90601f801991011681019081106001600160401b03821117610d3657604052565b81601f82011215610200578035906001600160401b038211610d365760405192611a16601f8401601f1916602001856119c1565b8284526020838301011161020057816000926020809301838601378301015290565b6040906003190112610200576004359060243590565b8054821015611a6a5760005260206000209060021b0190600090565b634e487b7160e01b600052603260045260246000fd5b90600182811c92168015611ab0575b6020831014611a9a57565b634e487b7160e01b600052602260045260246000fd5b91607f1691611a8f565b9060405191826000825492611ace84611a80565b908184526001948581169081600014611b3d5750600114611afa575b5050611af8925003836119c1565b565b9093915060005260209081600020936000915b818310611b25575050611af893508201013880611aea565b85548884018501529485019487945091830191611b0d565b915050611af894506020925060ff191682840152151560051b8201013880611aea565b60005b838110611b735750506000910152565b8181015183820152602001611b63565b90602091611b9c81518092818552858086019101611b60565b601f01601f1916010190565b606060031982011261020057600435916001600160401b036024358181116102005783611bd7916004016119e2565b9260443591821161020057611bee916004016119e2565b90565b15611bf857565b60405162461bcd60e51b8152602060048201526011602482015270556e617574686f72697a656420726f6c6560781b6044820152606490fd5b818110611c3c575050565b60008155600101611c31565b9190601f8111611c5757505050565b611af8926000526020600020906020601f840160051c83019310611c83575b601f0160051c0190611c31565b9091508190611c76565b8054600160401b811015610d3657611cac906001928382018155611a4e565b611e96578251611cbb81611934565b611cc481611934565b81546020858101516001600160a81b031990921660ff939093169290921760089190911b610100600160a81b0316178255604084015180516001600160401b0393918583019190858211610d3657611d2682611d208554611a80565b85611c48565b8490601f8311600114611e295791806003949260809694600092611e1e575b505060001982861b1c191690881b1790555b60608701516002820155019401518051928311610d3657611d8283611d7c8754611a80565b87611c48565b81601f8411600114611dbb5750928293918392600094611db0575b50501b916000199060031b1c1916179055565b015192503880611d9d565b919083601f1981168760005284600020946000905b88838310611e045750505010611deb575b505050811b019055565b015160001960f88460031b161c19169055388080611de1565b858701518855909601959485019487935090810190611dd0565b015190503880611d45565b879291601f1983169185600052876000209260005b89828210611e805750509160809795939185600398969410611e68575b505050811b019055611d57565b015160001983881b60f8161c19169055388080611e5b565b8385015186558c97909501949384019301611e3e565b634e487b7160e01b600052600060045260246000fd5b8054600160401b811015610d3657611ecb906001928382018155611a4e565b611e965782518155606060038383019260209360018060a01b0385880151166bffffffffffffffffffffffff60a01b8254161790556040860151600282015501930151908151916001600160401b038311610d3657611f2e83611d7c8754611a80565b81601f8411600114611f5b5750928293918392600094611db05750501b916000199060031b1c1916179055565b919083601f1981168760005284600020946000905b88838310611f8a5750505010611deb57505050811b019055565b858701518855909601959485019487935090810190611f70565b15611fab57565b60405162461bcd60e51b815260206004820152601460248201527310985d18da08191bd95cc81b9bdd08195e1a5cdd60621b6044820152606490fd5b6001600160401b038111610d365760051b6020019056fea26469706673582212201301dcddab5a5979ca28dd1238a3bde9960e5d4209b500f93955e493cb03676864736f6c63430008130033","opcodes":"PUSH1 0x80 DUP1 PUSH1 0x40 MSTORE CALLVALUE PUSH2 0x44 JUMPI PUSH1 0x6 DUP1 SLOAD PUSH1 0x1 PUSH1 0x1 PUSH1 0xA0 SHL SUB NOT AND CALLER SWAP1 DUP2 OR SWAP1 SWAP2 SSTORE PUSH1 0x0 SWAP1 DUP2 MSTORE PUSH1 0x3 PUSH1 0x20 MSTORE PUSH1 0x40 SWAP1 KECCAK256 DUP1 SLOAD PUSH1 0xFF NOT AND PUSH1 0x1 OR SWAP1 SSTORE PUSH2 0x2034 SWAP1 DUP2 PUSH2 0x4A DUP3 CODECOPY RETURN JUMPDEST PUSH1 0x0 DUP1 REVERT INVALID PUSH1 0x80 DUP1 PUSH1 0x40 MSTORE PUSH1 0x4 CALLDATASIZE LT ISZERO PUSH2 0x13 JUMPI PUSH1 0x0 DUP1 REVERT JUMPDEST PUSH1 0x0 CALLDATALOAD PUSH1 0xE0 SHR SWAP1 DUP2 PUSH4 0x6F13056 EQ PUSH2 0x1903 JUMPI POP DUP1 PUSH4 0x27820851 EQ PUSH2 0x4BD JUMPI DUP1 PUSH4 0x2ACA09CA EQ PUSH2 0x18D2 JUMPI DUP1 PUSH4 0x45570C7D EQ PUSH2 0x1387 JUMPI DUP1 PUSH4 0x49799C77 EQ PUSH2 0x12E5 JUMPI DUP1 PUSH4 0x4BD738C7 EQ PUSH2 0x1269 JUMPI DUP1 PUSH4 0x53105B04 EQ PUSH2 0x1100 JUMPI DUP1 PUSH4 0x5AC44282 EQ PUSH2 0xEF8 JUMPI DUP1 PUSH4 0x61E6A027 EQ PUSH2 0x722 JUMPI DUP1 PUSH4 0x630A195B EQ PUSH2 0x65A JUMPI DUP1 PUSH4 0x742A7D3B EQ PUSH2 0x503 JUMPI DUP1 PUSH4 0x74D5E100 EQ PUSH2 0x4BD JUMPI DUP1 PUSH4 0x8DA5CB5B EQ PUSH2 0x494 JUMPI DUP1 PUSH4 0xB32C4D8D EQ PUSH2 0x384 JUMPI DUP1 PUSH4 0xF52A5839 EQ PUSH2 0x205 JUMPI PUSH4 0xFD1A98A5 EQ PUSH2 0xCF JUMPI PUSH1 0x0 DUP1 REVERT JUMPDEST CALLVALUE PUSH2 0x200 JUMPI PUSH1 0x20 DUP1 PUSH1 0x3 NOT CALLDATASIZE ADD SLT PUSH2 0x200 JUMPI PUSH1 0x4 CALLDATALOAD PUSH1 0x0 MSTORE PUSH1 0x2 SWAP1 DUP2 DUP2 MSTORE PUSH1 0x40 PUSH1 0x0 KECCAK256 DUP1 SLOAD PUSH2 0xFD DUP2 PUSH2 0x1FE7 JUMP JUMPDEST SWAP4 PUSH2 0x10B PUSH1 0x40 MLOAD SWAP6 DUP7 PUSH2 0x19C1 JUMP JUMPDEST DUP2 DUP6 MSTORE PUSH1 0x0 SWAP3 DUP4 MSTORE DUP4 DUP4 KECCAK256 DUP5 DUP7 ADD SWAP4 SWAP2 DUP5 JUMPDEST DUP5 DUP5 LT PUSH2 0x1AD JUMPI PUSH1 0x40 DUP1 MLOAD DUP9 DUP2 MSTORE DUP10 MLOAD DUP2 DUP11 ADD DUP2 SWAP1 MSTORE PUSH1 0x0 SWAP3 PUSH1 0x5 DUP3 SWAP1 SHL DUP4 ADD DUP2 ADD SWAP2 DUP11 SWAP2 DUP13 SWAP1 DUP6 ADD JUMPDEST DUP3 DUP8 LT PUSH2 0x154 JUMPI DUP6 DUP6 SUB DUP7 RETURN JUMPDEST SWAP1 SWAP2 SWAP3 SWAP4 DUP3 DUP1 PUSH2 0x19D PUSH1 0x1 SWAP4 PUSH1 0x3F NOT DUP11 DUP3 SUB ADD DUP7 MSTORE DUP9 MLOAD DUP1 MLOAD DUP3 MSTORE DUP6 DUP1 PUSH1 0xA0 SHL SUB DUP5 DUP3 ADD MLOAD AND DUP5 DUP4 ADD MSTORE PUSH1 0x40 DUP2 ADD MLOAD PUSH1 0x40 DUP4 ADD MSTORE PUSH1 0x60 DUP1 SWAP2 ADD MLOAD SWAP2 PUSH1 0x80 DUP1 SWAP3 DUP3 ADD MSTORE ADD SWAP1 PUSH2 0x1B83 JUMP JUMPDEST SWAP7 ADD SWAP3 ADD SWAP7 ADD SWAP6 SWAP3 SWAP2 SWAP1 SWAP3 PUSH2 0x147 JUMP JUMPDEST PUSH1 0x4 DUP8 PUSH1 0x1 SWAP3 PUSH1 0x40 SWAP11 SWAP10 SWAP11 MLOAD PUSH2 0x1C2 DUP2 PUSH2 0x196F JUMP JUMPDEST DUP7 SLOAD DUP2 MSTORE DUP5 DUP1 PUSH1 0xA0 SHL SUB DUP6 DUP9 ADD SLOAD AND DUP4 DUP3 ADD MSTORE DUP6 DUP8 ADD SLOAD PUSH1 0x40 DUP3 ADD MSTORE PUSH2 0x1EA PUSH1 0x3 DUP9 ADD PUSH2 0x1ABA JUMP JUMPDEST PUSH1 0x60 DUP3 ADD MSTORE DUP2 MSTORE ADD SWAP4 ADD SWAP4 ADD SWAP3 SWAP2 SWAP7 SWAP6 SWAP7 PUSH2 0x11D JUMP JUMPDEST PUSH1 0x0 DUP1 REVERT JUMPDEST CALLVALUE PUSH2 0x200 JUMPI PUSH1 0x20 DUP1 PUSH1 0x3 NOT CALLDATASIZE ADD SLT PUSH2 0x200 JUMPI PUSH1 0x4 CALLDATALOAD PUSH1 0x0 MSTORE PUSH1 0x1 SWAP1 DUP2 DUP2 MSTORE PUSH1 0x40 PUSH1 0x0 KECCAK256 SWAP2 DUP3 SLOAD SWAP2 PUSH2 0x235 DUP4 PUSH2 0x1FE7 JUMP JUMPDEST SWAP3 PUSH2 0x243 PUSH1 0x40 MLOAD SWAP5 DUP6 PUSH2 0x19C1 JUMP JUMPDEST DUP1 DUP5 MSTORE DUP2 DUP5 ADD DUP1 SWAP6 PUSH1 0x0 MSTORE DUP3 PUSH1 0x0 KECCAK256 PUSH1 0x0 SWAP2 JUMPDEST DUP4 DUP4 LT PUSH2 0x30E JUMPI POP POP POP POP PUSH1 0x40 MLOAD SWAP3 DUP2 DUP5 ADD SWAP1 DUP3 DUP6 MSTORE MLOAD DUP1 SWAP2 MSTORE PUSH1 0x40 DUP5 ADD SWAP2 PUSH1 0x40 DUP3 PUSH1 0x5 SHL DUP7 ADD ADD SWAP6 SWAP3 PUSH1 0x0 SWAP1 JUMPDEST DUP4 DUP3 LT PUSH2 0x291 JUMPI DUP7 DUP9 SUB DUP8 RETURN JUMPDEST SWAP1 SWAP2 SWAP3 SWAP4 SWAP5 DUP4 DUP1 PUSH2 0x2FD DUP4 SWAP11 PUSH1 0x3F NOT DUP12 DUP3 SUB ADD DUP7 MSTORE DUP10 MLOAD DUP1 MLOAD PUSH2 0x2B3 DUP2 PUSH2 0x1934 JUMP JUMPDEST DUP3 MSTORE DUP1 DUP5 ADD MLOAD PUSH1 0x1 PUSH1 0x1 PUSH1 0xA0 SHL SUB AND DUP5 DUP4 ADD MSTORE PUSH1 0x40 DUP1 DUP3 ADD MLOAD PUSH1 0xA0 SWAP2 DUP5 ADD DUP3 SWAP1 MSTORE PUSH2 0x2E0 SWAP2 DUP5 ADD SWAP1 PUSH2 0x1B83 JUMP JUMPDEST SWAP2 PUSH1 0x60 DUP1 DUP4 ADD MLOAD SWAP1 DUP3 ADD MSTORE PUSH1 0x80 DUP1 SWAP3 ADD MLOAD SWAP2 DUP2 DUP5 SUB SWAP2 ADD MSTORE PUSH2 0x1B83 JUMP JUMPDEST SWAP10 SWAP8 ADD SWAP6 SWAP5 SWAP4 SWAP2 SWAP1 SWAP2 ADD SWAP2 ADD PUSH2 0x284 JUMP JUMPDEST SWAP5 PUSH1 0x4 DUP6 DUP3 SWAP10 SWAP8 PUSH1 0x40 SWAP10 SWAP8 SWAP10 MLOAD PUSH2 0x324 DUP2 PUSH2 0x1954 JUMP JUMPDEST DUP6 SLOAD PUSH1 0xFF DUP2 AND PUSH2 0x333 DUP2 PUSH2 0x1934 JUMP JUMPDEST DUP3 MSTORE PUSH1 0x8 SHR PUSH1 0x1 PUSH1 0x1 PUSH1 0xA0 SHL SUB AND DUP4 DUP3 ADD MSTORE PUSH2 0x350 DUP7 DUP7 ADD PUSH2 0x1ABA JUMP JUMPDEST PUSH1 0x40 DUP3 ADD MSTORE PUSH1 0x2 DUP7 ADD SLOAD PUSH1 0x60 DUP3 ADD MSTORE PUSH2 0x36B PUSH1 0x3 DUP8 ADD PUSH2 0x1ABA JUMP JUMPDEST PUSH1 0x80 DUP3 ADD MSTORE DUP2 MSTORE ADD SWAP3 ADD SWAP3 ADD SWAP2 SWAP1 SWAP7 SWAP5 SWAP7 SWAP6 SWAP4 SWAP6 PUSH2 0x256 JUMP JUMPDEST CALLVALUE PUSH2 0x200 JUMPI PUSH1 0x20 CALLDATASIZE PUSH1 0x3 NOT ADD SLT PUSH2 0x200 JUMPI PUSH1 0x4 CALLDATALOAD PUSH1 0x0 MSTORE PUSH1 0x0 PUSH1 0x20 MSTORE PUSH1 0x40 PUSH1 0x0 KECCAK256 DUP1 SLOAD PUSH1 0x1 DUP3 ADD PUSH2 0x3B4 SWAP1 PUSH2 0x1ABA JUMP JUMPDEST SWAP2 PUSH2 0x3C1 PUSH1 0x2 DUP3 ADD PUSH2 0x1ABA JUMP JUMPDEST SWAP1 PUSH2 0x3CE PUSH1 0x3 DUP3 ADD PUSH2 0x1ABA JUMP JUMPDEST PUSH1 0x4 DUP3 ADD SLOAD SWAP1 PUSH1 0x5 DUP4 ADD SLOAD PUSH1 0x6 DUP5 ADD SLOAD PUSH1 0x7 DUP6 ADD SLOAD SWAP1 PUSH1 0x8 DUP7 ADD SLOAD SWAP3 PUSH1 0x9 DUP8 ADD SLOAD SWAP5 PUSH1 0xA DUP9 ADD PUSH2 0x3FD SWAP1 PUSH2 0x1ABA JUMP JUMPDEST SWAP8 PUSH1 0xB ADD SLOAD SWAP9 PUSH1 0x40 MLOAD SWAP12 DUP13 SWAP12 DUP13 MSTORE DUP12 PUSH2 0x1A0 PUSH1 0x20 DUP2 SWAP3 ADD MSTORE DUP13 ADD PUSH2 0x420 SWAP2 PUSH2 0x1B83 JUMP JUMPDEST DUP12 DUP2 SUB PUSH1 0x40 DUP14 ADD MSTORE PUSH2 0x431 SWAP2 PUSH2 0x1B83 JUMP JUMPDEST DUP11 DUP2 SUB PUSH1 0x60 DUP13 ADD MSTORE PUSH2 0x442 SWAP2 PUSH2 0x1B83 JUMP JUMPDEST SWAP6 PUSH1 0x80 DUP11 ADD MSTORE PUSH1 0xA0 DUP10 ADD MSTORE PUSH1 0xC0 DUP9 ADD MSTORE PUSH1 0xE0 DUP8 ADD MSTORE PUSH2 0x100 DUP7 ADD MSTORE PUSH1 0xFF DUP2 AND ISZERO ISZERO PUSH2 0x120 DUP7 ADD MSTORE PUSH1 0x8 SHR PUSH1 0xFF AND ISZERO ISZERO PUSH2 0x140 DUP6 ADD MSTORE DUP4 DUP2 SUB PUSH2 0x160 DUP6 ADD MSTORE PUSH2 0x489 SWAP2 PUSH2 0x1B83 JUMP JUMPDEST SWAP1 PUSH2 0x180 DUP4 ADD MSTORE SUB SWAP1 RETURN JUMPDEST CALLVALUE PUSH2 0x200 JUMPI PUSH1 0x0 CALLDATASIZE PUSH1 0x3 NOT ADD SLT PUSH2 0x200 JUMPI PUSH1 0x6 SLOAD PUSH1 0x40 MLOAD PUSH1 0x1 PUSH1 0x1 PUSH1 0xA0 SHL SUB SWAP1 SWAP2 AND DUP2 MSTORE PUSH1 0x20 SWAP1 RETURN JUMPDEST CALLVALUE PUSH2 0x200 JUMPI PUSH1 0x20 CALLDATASIZE PUSH1 0x3 NOT ADD SLT PUSH2 0x200 JUMPI PUSH1 0x1 PUSH1 0x1 PUSH1 0xA0 SHL SUB PUSH2 0x4DE PUSH2 0x191E JUMP JUMPDEST AND PUSH1 0x0 MSTORE PUSH1 0x3 PUSH1 0x20 MSTORE PUSH1 0x20 PUSH1 0xFF PUSH1 0x40 PUSH1 0x0 KECCAK256 SLOAD AND PUSH1 0x40 MLOAD SWAP1 PUSH2 0x4FF DUP2 PUSH2 0x1934 JUMP JUMPDEST DUP2 MSTORE RETURN JUMPDEST CALLVALUE PUSH2 0x200 JUMPI PUSH2 0x511 CALLDATASIZE PUSH2 0x1BA8 JUMP JUMPDEST SWAP1 CALLER PUSH1 0x0 MSTORE PUSH1 0x20 SWAP2 PUSH1 0x3 DUP4 MSTORE PUSH2 0x53A PUSH1 0x4 PUSH1 0xFF PUSH1 0x40 PUSH1 0x0 KECCAK256 SLOAD AND PUSH2 0x534 DUP2 PUSH2 0x1934 JUMP JUMPDEST EQ PUSH2 0x1BF1 JUMP JUMPDEST DUP4 PUSH1 0x0 MSTORE PUSH1 0x0 DUP4 MSTORE PUSH2 0x556 PUSH1 0xFF PUSH1 0x9 PUSH1 0x40 PUSH1 0x0 KECCAK256 ADD SLOAD AND PUSH2 0x1FA4 JUMP JUMPDEST DUP4 PUSH1 0x0 MSTORE PUSH1 0x1 DUP4 MSTORE PUSH1 0x40 PUSH1 0x0 KECCAK256 SWAP1 DUP2 SLOAD PUSH1 0x0 NOT DUP2 ADD SWAP1 DUP2 GT PUSH2 0x644 JUMPI PUSH1 0xFF PUSH2 0x580 PUSH1 0x3 SWAP3 DUP6 PUSH2 0x1A4E JUMP JUMPDEST POP SLOAD AND PUSH2 0x58C DUP2 PUSH2 0x1934 JUMP JUMPDEST SUB PUSH2 0x5F3 JUMPI PUSH1 0x40 SWAP3 PUSH32 0x20F13D5051A99E5A3E1FE067B2DAD576CC3253D70A33E0C746BECEBD65D4BAA4 SWAP5 SWAP3 PUSH2 0x5E4 SWAP3 DUP6 MLOAD SWAP3 PUSH2 0x5C7 DUP5 PUSH2 0x1954 JUMP JUMPDEST PUSH1 0x4 DUP5 MSTORE CALLER DUP7 DUP6 ADD MSTORE DUP7 DUP5 ADD MSTORE TIMESTAMP PUSH1 0x60 DUP5 ADD MSTORE PUSH1 0x80 DUP4 ADD MSTORE PUSH2 0x1C8D JUMP JUMPDEST DUP2 MLOAD SWAP1 PUSH1 0x4 DUP3 MSTORE CALLER SWAP1 DUP3 ADD MSTORE LOG2 STOP JUMPDEST PUSH1 0x40 MLOAD PUSH3 0x461BCD PUSH1 0xE5 SHL DUP2 MSTORE PUSH1 0x4 DUP2 ADD DUP6 SWAP1 MSTORE PUSH1 0x23 PUSH1 0x24 DUP3 ADD MSTORE PUSH32 0x4261746368206D7573742062652061742072657461696C206265666F72652073 PUSH1 0x44 DUP3 ADD MSTORE PUSH3 0x616C65 PUSH1 0xE8 SHL PUSH1 0x64 DUP3 ADD MSTORE PUSH1 0x84 SWAP1 REVERT JUMPDEST PUSH4 0x4E487B71 PUSH1 0xE0 SHL PUSH1 0x0 MSTORE PUSH1 0x11 PUSH1 0x4 MSTORE PUSH1 0x24 PUSH1 0x0 REVERT JUMPDEST CALLVALUE PUSH2 0x200 JUMPI PUSH1 0x40 CALLDATASIZE PUSH1 0x3 NOT ADD SLT PUSH2 0x200 JUMPI PUSH2 0x673 PUSH2 0x191E JUMP JUMPDEST PUSH1 0x24 CALLDATALOAD SWAP1 PUSH1 0x5 DUP3 LT ISZERO PUSH2 0x200 JUMPI PUSH1 0x6 SLOAD PUSH1 0x1 PUSH1 0x1 PUSH1 0xA0 SHL SUB SWAP2 SWAP1 DUP3 AND CALLER SUB PUSH2 0x6F1 JUMPI PUSH32 0x4AC36FA53F167CEB85964BE512E01DE2A3B8BDB9862F917DA079DEEEFF689B38 SWAP2 PUSH1 0x20 SWAP2 AND SWAP3 DUP4 PUSH1 0x0 MSTORE PUSH1 0x3 DUP3 MSTORE PUSH1 0x40 PUSH1 0x0 KECCAK256 PUSH2 0x6D2 DUP3 PUSH2 0x1934 JUMP JUMPDEST PUSH1 0xFF NOT DUP2 SLOAD AND PUSH1 0xFF DUP4 AND OR SWAP1 SSTORE PUSH1 0x40 MLOAD SWAP1 PUSH2 0x6EC DUP2 PUSH2 0x1934 JUMP JUMPDEST DUP2 MSTORE LOG2 STOP JUMPDEST PUSH1 0x40 MLOAD PUSH3 0x461BCD PUSH1 0xE5 SHL DUP2 MSTORE PUSH1 0x20 PUSH1 0x4 DUP3 ADD MSTORE PUSH1 0x9 PUSH1 0x24 DUP3 ADD MSTORE PUSH9 0x2737BA1037BBB732B9 PUSH1 0xB9 SHL PUSH1 0x44 DUP3 ADD MSTORE PUSH1 0x64 SWAP1 REVERT JUMPDEST CALLVALUE PUSH2 0x200 JUMPI PUSH1 0xC0 CALLDATASIZE PUSH1 0x3 NOT ADD SLT PUSH2 0x200 JUMPI PUSH1 0x4 CALLDATALOAD PUSH1 0x1 PUSH1 0x1 PUSH1 0x40 SHL SUB DUP2 GT PUSH2 0x200 JUMPI PUSH2 0x752 SWAP1 CALLDATASIZE SWAP1 PUSH1 0x4 ADD PUSH2 0x19E2 JUMP JUMPDEST PUSH1 0x24 CALLDATALOAD PUSH1 0x1 PUSH1 0x1 PUSH1 0x40 SHL SUB DUP2 GT PUSH2 0x200 JUMPI PUSH2 0x771 SWAP1 CALLDATASIZE SWAP1 PUSH1 0x4 ADD PUSH2 0x19E2 JUMP JUMPDEST PUSH1 0x44 CALLDATALOAD PUSH1 0x1 PUSH1 0x1 PUSH1 0x40 SHL SUB DUP2 GT PUSH2 0x200 JUMPI PUSH2 0x790 SWAP1 CALLDATASIZE SWAP1 PUSH1 0x4 ADD PUSH2 0x19E2 JUMP JUMPDEST CALLER PUSH1 0x0 MSTORE PUSH1 0x3 PUSH1 0x20 MSTORE PUSH2 0x7B0 PUSH1 0x1 PUSH1 0xFF PUSH1 0x40 PUSH1 0x0 KECCAK256 SLOAD AND PUSH2 0x534 DUP2 PUSH2 0x1934 JUMP JUMPDEST PUSH1 0x40 MLOAD PUSH2 0x803 PUSH1 0x60 DUP3 DUP7 MLOAD PUSH2 0x7CC DUP2 PUSH1 0x20 DUP5 ADD PUSH1 0x20 DUP12 ADD PUSH2 0x1B60 JUMP JUMPDEST DUP7 MLOAD SWAP1 DUP3 ADD PUSH2 0x7E2 DUP3 PUSH1 0x20 DUP4 ADD PUSH1 0x20 DUP12 ADD PUSH2 0x1B60 JUMP JUMPDEST ADD PUSH1 0xA4 CALLDATALOAD PUSH1 0x20 DUP3 ADD MSTORE PUSH1 0x64 CALLDATALOAD PUSH1 0x40 DUP3 ADD MSTORE PUSH1 0x40 DUP3 DUP3 SUB ADD DUP3 MSTORE SUB ADD DUP3 PUSH2 0x19C1 JUMP JUMPDEST PUSH1 0x20 DUP2 MLOAD SWAP2 ADD KECCAK256 SWAP3 DUP4 PUSH1 0x0 MSTORE PUSH1 0x4 PUSH1 0x20 MSTORE PUSH1 0xFF PUSH1 0x40 PUSH1 0x0 KECCAK256 SLOAD AND SWAP1 PUSH1 0x5 SLOAD SWAP3 PUSH1 0x0 NOT DUP5 EQ PUSH2 0x644 JUMPI PUSH1 0x1 DUP5 ADD PUSH1 0x5 SSTORE DUP3 ISZERO PUSH2 0xECC JUMPI PUSH1 0x40 MLOAD DUP1 PUSH1 0x60 DUP2 ADD LT PUSH1 0x1 PUSH1 0x1 PUSH1 0x40 SHL SUB PUSH1 0x60 DUP4 ADD GT OR PUSH2 0xD36 JUMPI PUSH1 0x60 DUP2 ADD PUSH1 0x40 MSTORE PUSH1 0x22 DUP2 MSTORE PUSH32 0x506F74656E7469616C206475706C696361746520656E74727920646574656374 PUSH1 0x20 DUP3 ADD MSTORE PUSH2 0x1959 PUSH1 0xF2 SHL PUSH1 0x40 DUP3 ADD MSTORE SWAP5 JUMPDEST DUP4 ISZERO PUSH2 0xEC3 JUMPI PUSH1 0xFF PUSH1 0x32 JUMPDEST PUSH1 0x40 MLOAD SWAP8 PUSH2 0x8A9 DUP10 PUSH2 0x198A JUMP JUMPDEST PUSH1 0x1 DUP9 ADD DUP10 MSTORE DUP6 PUSH1 0x20 DUP11 ADD MSTORE DUP4 PUSH1 0x40 DUP11 ADD MSTORE DUP5 PUSH1 0x60 DUP11 ADD MSTORE PUSH1 0x64 CALLDATALOAD PUSH1 0x80 DUP11 ADD MSTORE PUSH1 0x84 CALLDATALOAD PUSH1 0xA0 DUP11 ADD MSTORE PUSH1 0x84 CALLDATALOAD PUSH1 0xC0 DUP11 ADD MSTORE PUSH1 0xA4 CALLDATALOAD PUSH1 0xE0 DUP11 ADD MSTORE TIMESTAMP PUSH2 0x100 DUP11 ADD MSTORE PUSH1 0x1 PUSH2 0x120 DUP11 ADD MSTORE DUP7 ISZERO ISZERO PUSH2 0x140 DUP11 ADD MSTORE PUSH2 0x160 DUP10 ADD MSTORE AND PUSH2 0x180 DUP8 ADD MSTORE PUSH1 0x1 DUP6 ADD PUSH1 0x0 MSTORE PUSH1 0x0 PUSH1 0x20 MSTORE PUSH1 0x40 PUSH1 0x0 KECCAK256 SWAP7 DUP7 MLOAD DUP9 SSTORE PUSH1 0x20 DUP8 ADD MLOAD DUP1 MLOAD SWAP1 PUSH1 0x1 PUSH1 0x1 PUSH1 0x40 SHL SUB DUP3 GT PUSH2 0xD36 JUMPI DUP2 SWAP1 PUSH2 0x94E DUP3 DUP13 PUSH1 0x1 PUSH2 0x947 DUP2 DUP4 ADD SLOAD PUSH2 0x1A80 JUMP JUMPDEST SWAP2 ADD PUSH2 0x1C48 JUMP JUMPDEST PUSH1 0x20 SWAP1 PUSH1 0x1F DUP4 GT PUSH1 0x1 EQ PUSH2 0xE51 JUMPI PUSH1 0x0 SWAP3 PUSH2 0xE46 JUMPI JUMPDEST POP POP DUP2 PUSH1 0x1 SHL SWAP2 PUSH1 0x0 NOT SWAP1 PUSH1 0x3 SHL SHR NOT AND OR PUSH1 0x1 DUP10 ADD SSTORE JUMPDEST PUSH1 0x40 DUP8 ADD MLOAD DUP1 MLOAD SWAP1 PUSH1 0x1 PUSH1 0x1 PUSH1 0x40 SHL SUB DUP3 GT PUSH2 0xD36 JUMPI DUP2 SWAP1 PUSH2 0x9A7 DUP3 DUP13 PUSH1 0x2 PUSH2 0x947 DUP2 DUP4 ADD SLOAD PUSH2 0x1A80 JUMP JUMPDEST PUSH1 0x20 SWAP1 PUSH1 0x1F DUP4 GT PUSH1 0x1 EQ PUSH2 0xDD4 JUMPI PUSH1 0x0 SWAP3 PUSH2 0xDC9 JUMPI JUMPDEST POP POP DUP2 PUSH1 0x1 SHL SWAP2 PUSH1 0x0 NOT SWAP1 PUSH1 0x3 SHL SHR NOT AND OR PUSH1 0x2 DUP10 ADD SSTORE JUMPDEST PUSH1 0x60 DUP8 ADD MLOAD DUP1 MLOAD SWAP1 PUSH1 0x1 PUSH1 0x1 PUSH1 0x40 SHL SUB DUP3 GT PUSH2 0xD36 JUMPI DUP2 SWAP1 PUSH2 0xA00 DUP3 DUP13 PUSH1 0x3 PUSH2 0x947 DUP2 DUP4 ADD SLOAD PUSH2 0x1A80 JUMP JUMPDEST PUSH1 0x20 SWAP1 PUSH1 0x1F DUP4 GT PUSH1 0x1 EQ PUSH2 0xD57 JUMPI PUSH1 0x0 SWAP3 PUSH2 0xD4C JUMPI JUMPDEST POP POP DUP2 PUSH1 0x1 SHL SWAP2 PUSH1 0x0 NOT SWAP1 PUSH1 0x3 SHL SHR NOT AND OR PUSH1 0x3 DUP10 ADD SSTORE JUMPDEST PUSH1 0x80 DUP8 ADD MLOAD PUSH1 0x4 DUP10 ADD SSTORE PUSH1 0xA0 DUP8 ADD MLOAD PUSH1 0x5 DUP10 ADD SSTORE PUSH1 0xC0 DUP8 ADD MLOAD PUSH1 0x6 DUP10 ADD SSTORE PUSH1 0xE0 DUP8 ADD MLOAD PUSH1 0x7 DUP10 ADD SSTORE PUSH2 0x100 DUP8 ADD MLOAD PUSH1 0x8 DUP10 ADD SSTORE PUSH1 0x9 DUP9 ADD PUSH2 0x120 DUP9 ADD MLOAD ISZERO ISZERO DUP2 SLOAD PUSH1 0xFF PUSH2 0xFF00 PUSH2 0x140 DUP13 ADD MLOAD ISZERO ISZERO PUSH1 0x8 SHL AND SWAP3 AND SWAP1 PUSH2 0xFFFF NOT AND OR OR SWAP1 SSTORE PUSH2 0x160 DUP8 ADD MLOAD SWAP8 DUP9 MLOAD PUSH1 0x1 PUSH1 0x1 PUSH1 0x40 SHL SUB DUP2 GT PUSH2 0xD36 JUMPI PUSH1 0x20 SWAP10 PUSH2 0xAC0 DUP3 PUSH2 0xAB7 PUSH1 0xA DUP7 ADD SLOAD PUSH2 0x1A80 JUMP JUMPDEST PUSH1 0xA DUP7 ADD PUSH2 0x1C48 JUMP JUMPDEST DUP11 SWAP1 PUSH1 0x1F DUP4 GT PUSH1 0x1 EQ PUSH2 0xCBC JUMPI SWAP10 DUP3 PUSH1 0xB SWAP4 PUSH2 0x180 SWAP4 PUSH2 0xB96 SWAP11 SWAP12 SWAP13 SWAP14 PUSH1 0x0 SWAP3 PUSH2 0xCB1 JUMPI JUMPDEST POP POP DUP2 PUSH1 0x1 SHL SWAP2 PUSH1 0x0 NOT SWAP1 PUSH1 0x3 SHL SHR NOT AND OR PUSH1 0xA DUP6 ADD SSTORE JUMPDEST ADD MLOAD SWAP2 ADD SSTORE PUSH1 0x0 MSTORE PUSH1 0x4 DUP8 MSTORE PUSH1 0x40 PUSH1 0x0 KECCAK256 PUSH1 0x1 PUSH1 0xFF NOT DUP3 SLOAD AND OR SWAP1 SSTORE PUSH1 0x1 DUP7 ADD PUSH1 0x0 MSTORE PUSH1 0x1 DUP8 MSTORE PUSH1 0x40 PUSH1 0x0 KECCAK256 SWAP1 PUSH2 0xB6B PUSH1 0x2D PUSH1 0x40 MLOAD DUP1 SWAP4 PUSH13 0x2430B93B32B9BA32B210313C9 PUSH1 0x9D SHL DUP13 DUP4 ADD MSTORE PUSH2 0xB5B DUP2 MLOAD DUP1 SWAP3 DUP15 DUP7 DUP7 ADD SWAP2 ADD PUSH2 0x1B60 JUMP JUMPDEST DUP2 ADD SUB PUSH1 0xD DUP2 ADD DUP5 MSTORE ADD DUP3 PUSH2 0x19C1 JUMP JUMPDEST PUSH1 0x40 MLOAD SWAP3 PUSH2 0xB78 DUP5 PUSH2 0x1954 JUMP JUMPDEST PUSH1 0x0 DUP5 MSTORE CALLER DUP10 DUP6 ADD MSTORE PUSH1 0x40 DUP5 ADD MSTORE TIMESTAMP PUSH1 0x60 DUP5 ADD MSTORE PUSH1 0x80 DUP4 ADD MSTORE PUSH2 0x1C8D JUMP JUMPDEST PUSH1 0x1 DUP4 ADD PUSH1 0x0 MSTORE PUSH1 0x2 DUP5 MSTORE PUSH2 0xBFC PUSH1 0x40 PUSH1 0x0 KECCAK256 PUSH1 0x40 MLOAD SWAP1 PUSH2 0xBB6 DUP3 PUSH2 0x196F JUMP JUMPDEST PUSH1 0x84 CALLDATALOAD DUP3 MSTORE CALLER DUP8 DUP4 ADD MSTORE TIMESTAMP PUSH1 0x40 DUP4 ADD MSTORE PUSH1 0x40 MLOAD PUSH2 0xBD2 DUP2 PUSH2 0x19A6 JUMP JUMPDEST PUSH1 0x14 DUP2 MSTORE PUSH20 0x496E697469616C206661726D6572207072696365 PUSH1 0x60 SHL DUP9 DUP3 ADD MSTORE PUSH1 0x60 DUP4 ADD MSTORE PUSH2 0x1EAC JUMP JUMPDEST PUSH32 0x195A26ECF0C9B8FB957ECC3A7C029CE84849279DE600E16F205EE789052052B6 PUSH2 0xC32 PUSH1 0x40 MLOAD SWAP3 PUSH1 0x40 DUP5 MSTORE PUSH1 0x40 DUP5 ADD SWAP1 PUSH2 0x1B83 JUMP JUMPDEST SWAP2 CALLER DUP7 DUP3 ADD MSTORE DUP1 PUSH1 0x1 DUP7 ADD SWAP4 SUB SWAP1 LOG2 PUSH2 0xC51 JUMPI JUMPDEST PUSH1 0x1 PUSH1 0x40 MLOAD SWAP2 ADD DUP2 MSTORE RETURN JUMPDEST PUSH1 0x40 MLOAD DUP3 DUP2 MSTORE PUSH1 0x17 DUP4 DUP3 ADD MSTORE PUSH32 0x4475706C69636174652070726F6475637420656E747279000000000000000000 PUSH1 0x40 DUP3 ADD MSTORE PUSH32 0x9EC2F02A52D1CBE4470CCF0BA921147EFCD4728EB6330DCF53A326124E35CAF6 PUSH1 0x60 PUSH1 0x1 DUP5 ADD SWAP3 LOG2 PUSH2 0xC46 JUMP JUMPDEST ADD MLOAD SWAP1 POP DUP15 DUP1 PUSH2 0xAE5 JUMP JUMPDEST SWAP1 PUSH1 0xA DUP5 ADD PUSH1 0x0 MSTORE DUP12 PUSH1 0x0 KECCAK256 SWAP2 PUSH1 0x0 JUMPDEST PUSH1 0x1F NOT DUP6 AND DUP2 LT PUSH2 0xD1F JUMPI POP DUP4 PUSH2 0x180 SWAP4 PUSH2 0xB96 SWAP11 SWAP12 SWAP13 SWAP14 SWAP4 PUSH1 0x1 SWAP4 PUSH1 0xB SWAP8 PUSH1 0x1F NOT DUP2 AND LT PUSH2 0xD06 JUMPI JUMPDEST POP POP POP DUP2 SHL ADD PUSH1 0xA DUP6 ADD SSTORE PUSH2 0xAFD JUMP JUMPDEST ADD MLOAD PUSH1 0x0 NOT PUSH1 0xF8 DUP5 PUSH1 0x3 SHL AND SHR NOT AND SWAP1 SSTORE DUP15 DUP1 DUP1 PUSH2 0xCF6 JUMP JUMPDEST SWAP2 SWAP3 DUP14 PUSH1 0x1 DUP2 SWAP3 DUP7 DUP6 ADD MLOAD DUP2 SSTORE ADD SWAP5 ADD SWAP3 ADD PUSH2 0xCCC JUMP JUMPDEST PUSH4 0x4E487B71 PUSH1 0xE0 SHL PUSH1 0x0 MSTORE PUSH1 0x41 PUSH1 0x4 MSTORE PUSH1 0x24 PUSH1 0x0 REVERT JUMPDEST ADD MLOAD SWAP1 POP DUP11 DUP1 PUSH2 0xA16 JUMP JUMPDEST SWAP3 POP PUSH1 0x3 DUP12 ADD PUSH1 0x0 MSTORE PUSH1 0x20 PUSH1 0x0 KECCAK256 SWAP1 PUSH1 0x0 SWAP4 JUMPDEST PUSH1 0x1F NOT DUP5 AND DUP6 LT PUSH2 0xDAE JUMPI PUSH1 0x1 SWAP5 POP DUP4 PUSH1 0x1F NOT DUP2 AND LT PUSH2 0xD95 JUMPI JUMPDEST POP POP POP DUP2 SHL ADD PUSH1 0x3 DUP10 ADD SSTORE PUSH2 0xA2E JUMP JUMPDEST ADD MLOAD PUSH1 0x0 NOT PUSH1 0xF8 DUP5 PUSH1 0x3 SHL AND SHR NOT AND SWAP1 SSTORE DUP11 DUP1 DUP1 PUSH2 0xD85 JUMP JUMPDEST DUP2 DUP2 ADD MLOAD DUP4 SSTORE PUSH1 0x20 SWAP5 DUP6 ADD SWAP5 PUSH1 0x1 SWAP1 SWAP4 ADD SWAP3 SWAP1 SWAP2 ADD SWAP1 PUSH2 0xD6A JUMP JUMPDEST ADD MLOAD SWAP1 POP DUP11 DUP1 PUSH2 0x9BD JUMP JUMPDEST SWAP3 POP PUSH1 0x2 DUP12 ADD PUSH1 0x0 MSTORE PUSH1 0x20 PUSH1 0x0 KECCAK256 SWAP1 PUSH1 0x0 SWAP4 JUMPDEST PUSH1 0x1F NOT DUP5 AND DUP6 LT PUSH2 0xE2B JUMPI PUSH1 0x1 SWAP5 POP DUP4 PUSH1 0x1F NOT DUP2 AND LT PUSH2 0xE12 JUMPI JUMPDEST POP POP POP DUP2 SHL ADD PUSH1 0x2 DUP10 ADD SSTORE PUSH2 0x9D5 JUMP JUMPDEST ADD MLOAD PUSH1 0x0 NOT PUSH1 0xF8 DUP5 PUSH1 0x3 SHL AND SHR NOT AND SWAP1 SSTORE DUP11 DUP1 DUP1 PUSH2 0xE02 JUMP JUMPDEST DUP2 DUP2 ADD MLOAD DUP4 SSTORE PUSH1 0x20 SWAP5 DUP6 ADD SWAP5 PUSH1 0x1 SWAP1 SWAP4 ADD SWAP3 SWAP1 SWAP2 ADD SWAP1 PUSH2 0xDE7 JUMP JUMPDEST ADD MLOAD SWAP1 POP DUP11 DUP1 PUSH2 0x964 JUMP JUMPDEST SWAP3 POP PUSH1 0x1 DUP12 ADD PUSH1 0x0 MSTORE PUSH1 0x20 PUSH1 0x0 KECCAK256 SWAP1 PUSH1 0x0 SWAP4 JUMPDEST PUSH1 0x1F NOT DUP5 AND DUP6 LT PUSH2 0xEA8 JUMPI PUSH1 0x1 SWAP5 POP DUP4 PUSH1 0x1F NOT DUP2 AND LT PUSH2 0xE8F JUMPI JUMPDEST POP POP POP DUP2 SHL ADD PUSH1 0x1 DUP10 ADD SSTORE PUSH2 0x97C JUMP JUMPDEST ADD MLOAD PUSH1 0x0 NOT PUSH1 0xF8 DUP5 PUSH1 0x3 SHL AND SHR NOT AND SWAP1 SSTORE DUP11 DUP1 DUP1 PUSH2 0xE7F JUMP JUMPDEST DUP2 DUP2 ADD MLOAD DUP4 SSTORE PUSH1 0x20 SWAP5 DUP6 ADD SWAP5 PUSH1 0x1 SWAP1 SWAP4 ADD SWAP3 SWAP1 SWAP2 ADD SWAP1 PUSH2 0xE64 JUMP JUMPDEST PUSH1 0xFF PUSH1 0x64 PUSH2 0x89C JUMP JUMPDEST PUSH1 0x40 MLOAD DUP1 PUSH1 0x20 DUP2 ADD LT PUSH1 0x1 PUSH1 0x1 PUSH1 0x40 SHL SUB PUSH1 0x20 DUP4 ADD GT OR PUSH2 0xD36 JUMPI PUSH1 0x20 DUP2 ADD PUSH1 0x40 MSTORE PUSH1 0x0 DUP2 MSTORE SWAP5 PUSH2 0x891 JUMP JUMPDEST CALLVALUE PUSH2 0x200 JUMPI PUSH1 0x20 CALLDATASIZE PUSH1 0x3 NOT ADD SLT PUSH2 0x200 JUMPI PUSH1 0x0 PUSH2 0x180 PUSH1 0x40 MLOAD PUSH2 0xF1A DUP2 PUSH2 0x198A JUMP JUMPDEST DUP3 DUP2 MSTORE PUSH1 0x60 PUSH1 0x20 DUP3 ADD MSTORE PUSH1 0x60 PUSH1 0x40 DUP3 ADD MSTORE PUSH1 0x60 DUP1 DUP3 ADD MSTORE DUP3 PUSH1 0x80 DUP3 ADD MSTORE DUP3 PUSH1 0xA0 DUP3 ADD MSTORE DUP3 PUSH1 0xC0 DUP3 ADD MSTORE DUP3 PUSH1 0xE0 DUP3 ADD MSTORE DUP3 PUSH2 0x100 DUP3 ADD MSTORE DUP3 PUSH2 0x120 DUP3 ADD MSTORE DUP3 PUSH2 0x140 DUP3 ADD MSTORE PUSH1 0x60 PUSH2 0x160 DUP3 ADD MSTORE ADD MSTORE PUSH1 0x4 CALLDATALOAD PUSH1 0x0 MSTORE PUSH1 0x0 PUSH1 0x20 MSTORE PUSH1 0x40 PUSH1 0x0 KECCAK256 PUSH1 0xB PUSH1 0x40 MLOAD SWAP2 PUSH2 0xF87 DUP4 PUSH2 0x198A JUMP JUMPDEST DUP1 SLOAD DUP4 MSTORE PUSH2 0xF97 PUSH1 0x1 DUP3 ADD PUSH2 0x1ABA JUMP JUMPDEST PUSH1 0x20 DUP5 ADD MSTORE PUSH2 0xFA8 PUSH1 0x2 DUP3 ADD PUSH2 0x1ABA JUMP JUMPDEST PUSH1 0x40 DUP5 ADD MSTORE PUSH2 0xFB9 PUSH1 0x3 DUP3 ADD PUSH2 0x1ABA JUMP JUMPDEST PUSH1 0x60 DUP5 ADD MSTORE PUSH1 0x4 DUP2 ADD SLOAD PUSH1 0x80 DUP5 ADD MSTORE PUSH1 0x5 DUP2 ADD SLOAD PUSH1 0xA0 DUP5 ADD MSTORE PUSH1 0x6 DUP2 ADD SLOAD PUSH1 0xC0 DUP5 ADD MSTORE PUSH1 0x7 DUP2 ADD SLOAD PUSH1 0xE0 DUP5 ADD MSTORE PUSH1 0x8 DUP2 ADD SLOAD PUSH2 0x100 DUP5 ADD MSTORE PUSH1 0xFF PUSH1 0x9 DUP3 ADD SLOAD DUP2 DUP2 AND ISZERO ISZERO PUSH2 0x120 DUP7 ADD MSTORE PUSH1 0x8 SHR AND ISZERO ISZERO PUSH2 0x140 DUP5 ADD MSTORE PUSH2 0x101B PUSH1 0xA DUP3 ADD PUSH2 0x1ABA JUMP JUMPDEST PUSH2 0x160 DUP5 ADD MSTORE ADD SLOAD PUSH2 0x180 DUP3 ADD MSTORE PUSH1 0x40 MLOAD DUP1 SWAP2 PUSH1 0x20 DUP3 MSTORE DUP1 MLOAD PUSH1 0x20 DUP4 ADD MSTORE PUSH2 0x180 PUSH2 0x10F3 PUSH2 0x108C PUSH2 0x1076 PUSH2 0x1060 PUSH1 0x20 DUP7 ADD MLOAD PUSH2 0x1A0 PUSH1 0x40 DUP10 ADD MSTORE PUSH2 0x1C0 DUP9 ADD SWAP1 PUSH2 0x1B83 JUMP JUMPDEST PUSH1 0x40 DUP7 ADD MLOAD DUP8 DUP3 SUB PUSH1 0x1F NOT ADD PUSH1 0x60 DUP10 ADD MSTORE PUSH2 0x1B83 JUMP JUMPDEST PUSH1 0x60 DUP6 ADD MLOAD DUP7 DUP3 SUB PUSH1 0x1F NOT ADD PUSH1 0x80 DUP9 ADD MSTORE PUSH2 0x1B83 JUMP JUMPDEST PUSH1 0x80 DUP5 ADD MLOAD PUSH1 0xA0 DUP7 ADD MSTORE PUSH1 0xA0 DUP5 ADD MLOAD PUSH1 0xC0 DUP7 ADD MSTORE PUSH1 0xC0 DUP5 ADD MLOAD PUSH1 0xE0 DUP7 ADD MSTORE PUSH1 0xE0 DUP5 ADD MLOAD PUSH2 0x100 DUP7 ADD MSTORE PUSH2 0x100 DUP5 ADD MLOAD PUSH2 0x120 DUP7 ADD MSTORE PUSH2 0x120 DUP5 ADD MLOAD ISZERO ISZERO PUSH2 0x140 DUP7 ADD MSTORE PUSH2 0x140 DUP5 ADD MLOAD ISZERO ISZERO PUSH2 0x160 DUP7 ADD MSTORE PUSH2 0x160 DUP5 ADD MLOAD PUSH1 0x1F NOT DUP7 DUP4 SUB ADD DUP5 DUP8 ADD MSTORE PUSH2 0x1B83 JUMP JUMPDEST SWAP2 ADD MLOAD PUSH2 0x1A0 DUP4 ADD MSTORE SUB SWAP1 RETURN JUMPDEST CALLVALUE PUSH2 0x200 JUMPI PUSH2 0x110E CALLDATASIZE PUSH2 0x1BA8 JUMP JUMPDEST SWAP1 CALLER PUSH1 0x0 MSTORE PUSH1 0x20 SWAP1 PUSH1 0x3 DUP3 MSTORE PUSH2 0x1131 PUSH1 0x2 PUSH1 0xFF PUSH1 0x40 PUSH1 0x0 KECCAK256 SLOAD AND PUSH2 0x534 DUP2 PUSH2 0x1934 JUMP JUMPDEST DUP4 PUSH1 0x0 MSTORE PUSH1 0x0 DUP3 MSTORE PUSH2 0x114D PUSH1 0xFF PUSH1 0x9 PUSH1 0x40 PUSH1 0x0 KECCAK256 ADD SLOAD AND PUSH2 0x1FA4 JUMP JUMPDEST DUP4 PUSH1 0x0 MSTORE PUSH1 0x1 DUP3 MSTORE PUSH1 0x40 PUSH1 0x0 KECCAK256 DUP1 SLOAD PUSH1 0x0 NOT DUP2 ADD SWAP1 DUP2 GT PUSH2 0x644 JUMPI PUSH2 0x1174 PUSH1 0xFF SWAP2 DUP4 PUSH2 0x1A4E JUMP JUMPDEST POP SLOAD AND PUSH2 0x1180 DUP2 PUSH2 0x1934 JUMP JUMPDEST DUP1 ISZERO SWAP1 DUP2 DUP1 ISZERO PUSH2 0x1256 JUMPI JUMPDEST ISZERO PUSH2 0x121C JUMPI SWAP3 PUSH1 0x40 SWAP5 SWAP3 PUSH2 0x11FE SWAP3 PUSH2 0x11C4 PUSH32 0x20F13D5051A99E5A3E1FE067B2DAD576CC3253D70A33E0C746BECEBD65D4BAA4 SWAP9 SWAP7 PUSH2 0x1934 JUMP JUMPDEST ISZERO PUSH2 0x1214 JUMPI PUSH1 0x1 SWAP5 JUMPDEST DUP7 MLOAD SWAP3 PUSH2 0x11D9 DUP5 PUSH2 0x1954 JUMP JUMPDEST PUSH2 0x11E2 DUP8 PUSH2 0x1934 JUMP JUMPDEST DUP7 DUP5 MSTORE CALLER DUP7 DUP6 ADD MSTORE DUP8 DUP5 ADD MSTORE TIMESTAMP PUSH1 0x60 DUP5 ADD MSTORE PUSH1 0x80 DUP4 ADD MSTORE PUSH2 0x1C8D JUMP JUMPDEST DUP3 MLOAD SWAP2 PUSH2 0x120A DUP2 PUSH2 0x1934 JUMP JUMPDEST DUP3 MSTORE CALLER SWAP1 DUP3 ADD MSTORE LOG2 STOP JUMPDEST PUSH1 0x2 SWAP5 PUSH2 0x11CD JUMP JUMPDEST PUSH1 0x40 MLOAD PUSH3 0x461BCD PUSH1 0xE5 SHL DUP2 MSTORE PUSH1 0x4 DUP2 ADD DUP7 SWAP1 MSTORE PUSH1 0x12 PUSH1 0x24 DUP3 ADD MSTORE PUSH18 0x24B73B30B634B21039BA32B81037B93232B9 PUSH1 0x71 SHL PUSH1 0x44 DUP3 ADD MSTORE PUSH1 0x64 SWAP1 REVERT JUMPDEST POP PUSH2 0x1260 DUP2 PUSH2 0x1934 JUMP JUMPDEST PUSH1 0x1 DUP2 EQ PUSH2 0x118B JUMP JUMPDEST CALLVALUE PUSH2 0x200 JUMPI PUSH2 0x1277 CALLDATASIZE PUSH2 0x1A38 JUMP JUMPDEST SWAP1 PUSH1 0x0 MSTORE PUSH1 0x2 PUSH1 0x20 MSTORE PUSH1 0x40 PUSH1 0x0 KECCAK256 SWAP1 DUP2 SLOAD DUP2 LT ISZERO PUSH2 0x200 JUMPI PUSH2 0x1298 SWAP2 PUSH2 0x1A4E JUMP JUMPDEST POP DUP1 SLOAD PUSH2 0x12E1 PUSH1 0x1 DUP1 PUSH1 0xA0 SHL SUB PUSH1 0x1 DUP5 ADD SLOAD AND SWAP3 PUSH2 0x12BD PUSH1 0x3 PUSH1 0x2 DUP4 ADD SLOAD SWAP3 ADD PUSH2 0x1ABA JUMP JUMPDEST SWAP1 PUSH1 0x40 MLOAD SWAP5 DUP6 SWAP5 DUP6 MSTORE PUSH1 0x20 DUP6 ADD MSTORE PUSH1 0x40 DUP5 ADD MSTORE PUSH1 0x80 PUSH1 0x60 DUP5 ADD MSTORE PUSH1 0x80 DUP4 ADD SWAP1 PUSH2 0x1B83 JUMP JUMPDEST SUB SWAP1 RETURN JUMPDEST CALLVALUE PUSH2 0x200 JUMPI PUSH2 0x12F3 CALLDATASIZE PUSH2 0x1A38 JUMP JUMPDEST SWAP1 PUSH1 0x0 MSTORE PUSH1 0x1 PUSH1 0x20 MSTORE PUSH1 0x40 PUSH1 0x0 KECCAK256 SWAP1 DUP2 SLOAD DUP2 LT ISZERO PUSH2 0x200 JUMPI PUSH2 0x1314 SWAP2 PUSH2 0x1A4E JUMP JUMPDEST POP DUP1 SLOAD SWAP1 PUSH2 0x12E1 PUSH1 0xFF DUP4 AND SWAP2 PUSH2 0x132C PUSH1 0x1 DUP3 ADD PUSH2 0x1ABA JUMP JUMPDEST PUSH2 0x1374 PUSH2 0x1340 PUSH1 0x3 PUSH1 0x2 DUP6 ADD SLOAD SWAP5 ADD PUSH2 0x1ABA JUMP JUMPDEST SWAP2 PUSH1 0x40 MLOAD SWAP7 DUP7 PUSH2 0x1350 DUP10 SWAP9 PUSH2 0x1934 JUMP JUMPDEST DUP8 MSTORE PUSH1 0x8 SHR PUSH1 0x1 PUSH1 0x1 PUSH1 0xA0 SHL SUB AND PUSH1 0x20 DUP8 ADD MSTORE PUSH1 0xA0 PUSH1 0x40 DUP8 ADD DUP2 SWAP1 MSTORE DUP7 ADD SWAP1 PUSH2 0x1B83 JUMP JUMPDEST SWAP2 PUSH1 0x60 DUP6 ADD MSTORE DUP4 DUP3 SUB PUSH1 0x80 DUP6 ADD MSTORE PUSH2 0x1B83 JUMP JUMPDEST CALLVALUE PUSH2 0x200 JUMPI PUSH1 0x60 CALLDATASIZE PUSH1 0x3 NOT ADD SLT PUSH2 0x200 JUMPI PUSH1 0x44 CALLDATALOAD PUSH1 0x1 PUSH1 0x1 PUSH1 0x40 SHL SUB DUP2 GT PUSH2 0x200 JUMPI PUSH2 0x13B7 SWAP1 CALLDATASIZE SWAP1 PUSH1 0x4 ADD PUSH2 0x19E2 JUMP JUMPDEST CALLER PUSH1 0x0 MSTORE PUSH1 0x3 PUSH1 0x20 MSTORE PUSH2 0x13D7 PUSH1 0x3 PUSH1 0xFF PUSH1 0x40 PUSH1 0x0 KECCAK256 SLOAD AND PUSH2 0x534 DUP2 PUSH2 0x1934 JUMP JUMPDEST PUSH1 0x4 CALLDATALOAD PUSH1 0x0 MSTORE PUSH1 0x0 PUSH1 0x20 MSTORE PUSH2 0x13F6 PUSH1 0xFF PUSH1 0x9 PUSH1 0x40 PUSH1 0x0 KECCAK256 ADD SLOAD AND PUSH2 0x1FA4 JUMP JUMPDEST PUSH1 0x4 CALLDATALOAD PUSH1 0x0 MSTORE PUSH1 0x0 PUSH1 0x20 MSTORE PUSH1 0x40 PUSH1 0x0 KECCAK256 PUSH1 0x6 DUP2 ADD SLOAD SWAP2 PUSH1 0x5 DUP4 MUL DUP4 DUP2 DIV PUSH1 0x5 EQ DUP5 ISZERO OR ISZERO PUSH2 0x644 JUMPI PUSH1 0x24 CALLDATALOAD GT PUSH2 0x17BE JUMPI JUMPDEST PUSH1 0x4 CALLDATALOAD PUSH1 0x0 MSTORE PUSH1 0x1 PUSH1 0x20 MSTORE PUSH1 0x40 PUSH1 0x0 KECCAK256 SWAP2 DUP3 SLOAD PUSH1 0x0 NOT DUP2 ADD SWAP1 DUP2 GT PUSH2 0x644 JUMPI PUSH2 0x1452 PUSH1 0xFF SWAP2 DUP6 PUSH2 0x1A4E JUMP JUMPDEST POP SLOAD AND PUSH2 0x145E DUP2 PUSH2 0x1934 JUMP JUMPDEST ISZERO PUSH2 0x1571 JUMPI JUMPDEST PUSH2 0x14FE SWAP3 PUSH2 0x14C6 SWAP2 PUSH1 0x6 PUSH1 0x24 CALLDATALOAD SWAP2 ADD SSTORE PUSH1 0x40 MLOAD SWAP1 PUSH2 0x1481 DUP3 PUSH2 0x1954 JUMP JUMPDEST PUSH1 0x3 DUP3 MSTORE CALLER PUSH1 0x20 DUP4 ADD MSTORE PUSH1 0x40 MLOAD PUSH2 0x1497 DUP2 PUSH2 0x19A6 JUMP JUMPDEST PUSH1 0xC DUP2 MSTORE PUSH12 0x52657461696C2053746F7265 PUSH1 0xA0 SHL PUSH1 0x20 DUP3 ADD MSTORE PUSH1 0x40 DUP4 ADD MSTORE TIMESTAMP PUSH1 0x60 DUP4 ADD MSTORE DUP4 PUSH1 0x80 DUP4 ADD MSTORE PUSH2 0x1C8D JUMP JUMPDEST PUSH1 0x4 CALLDATALOAD PUSH1 0x0 MSTORE PUSH1 0x2 PUSH1 0x20 MSTORE PUSH1 0x40 PUSH1 0x0 KECCAK256 PUSH1 0x40 MLOAD SWAP2 PUSH2 0x14E3 DUP4 PUSH2 0x196F JUMP JUMPDEST PUSH1 0x24 CALLDATALOAD DUP4 MSTORE CALLER PUSH1 0x20 DUP5 ADD MSTORE TIMESTAMP PUSH1 0x40 DUP5 ADD MSTORE PUSH1 0x60 DUP4 ADD MSTORE PUSH2 0x1EAC JUMP JUMPDEST PUSH1 0x40 MLOAD SWAP1 DUP2 MSTORE PUSH1 0x24 CALLDATALOAD PUSH1 0x20 DUP3 ADD MSTORE CALLER PUSH1 0x40 DUP3 ADD MSTORE PUSH32 0x4F0AA5FAB7AA20059CC56368985FCF440C02C1D0229156BCFEFAD462CAE1893D PUSH1 0x60 PUSH1 0x4 CALLDATALOAD SWAP3 LOG2 PUSH1 0x40 MLOAD PUSH1 0x3 DUP2 MSTORE CALLER PUSH1 0x20 DUP3 ADD MSTORE PUSH32 0x20F13D5051A99E5A3E1FE067B2DAD576CC3253D70A33E0C746BECEBD65D4BAA4 PUSH1 0x40 PUSH1 0x4 CALLDATALOAD SWAP3 LOG2 STOP JUMPDEST PUSH1 0x9 DUP2 ADD DUP1 SLOAD PUSH2 0xFF00 NOT AND PUSH2 0x100 OR SWAP1 SSTORE PUSH1 0x40 MLOAD PUSH1 0xA DUP3 ADD SLOAD DUP2 PUSH1 0x0 PUSH2 0x1596 DUP4 PUSH2 0x1A80 JUMP JUMPDEST PUSH1 0x1 DUP5 AND DUP1 ISZERO PUSH2 0x179C JUMPI PUSH1 0x1 EQ PUSH2 0x1755 JUMPI JUMPDEST POP PUSH2 0x15E2 SWAP2 DUP2 PUSH32 0x207C204D697373696E67206469737472696275746F7220737465700000000000 PUSH1 0x1B SWAP4 MSTORE SUB PUSH1 0x4 NOT DUP2 ADD DUP6 MSTORE ADD DUP4 PUSH2 0x19C1 JUMP JUMPDEST DUP2 MLOAD SWAP2 PUSH1 0x1 PUSH1 0x1 PUSH1 0x40 SHL SUB DUP4 GT PUSH2 0xD36 JUMPI PUSH2 0x160A DUP4 PUSH2 0x1601 DUP2 SWAP5 PUSH2 0x1A80 JUMP JUMPDEST PUSH1 0xA DUP8 ADD PUSH2 0x1C48 JUMP JUMPDEST PUSH1 0x20 SWAP1 PUSH1 0x1F DUP4 GT PUSH1 0x1 EQ PUSH2 0x16E3 JUMPI PUSH1 0x0 SWAP3 PUSH2 0x16D8 JUMPI JUMPDEST POP POP DUP2 PUSH1 0x1 SHL SWAP2 PUSH1 0x0 NOT SWAP1 PUSH1 0x3 SHL SHR NOT AND OR PUSH1 0xA DUP3 ADD SSTORE JUMPDEST PUSH1 0xB DUP2 ADD SWAP3 DUP4 SLOAD SWAP2 PUSH1 0x14 DUP4 GT PUSH1 0x0 EQ PUSH2 0x16C7 JUMPI PUSH1 0x13 NOT DUP4 ADD SWAP3 DUP4 GT PUSH2 0x644 JUMPI PUSH2 0x14FE SWAP5 PUSH2 0x14C6 SWAP4 SWAP1 JUMPDEST SSTORE PUSH1 0x40 MLOAD PUSH1 0x20 DUP2 MSTORE PUSH1 0x1A PUSH1 0x20 DUP3 ADD MSTORE PUSH32 0x4D697373696E6720737570706C7920636861696E207374657073000000000000 PUSH1 0x40 DUP3 ADD MSTORE PUSH32 0x9EC2F02A52D1CBE4470CCF0BA921147EFCD4728EB6330DCF53A326124E35CAF6 PUSH1 0x60 PUSH1 0x4 CALLDATALOAD SWAP3 LOG2 SWAP2 POP SWAP3 POP PUSH2 0x1464 JUMP JUMPDEST PUSH2 0x14C6 SWAP3 POP PUSH2 0x14FE SWAP5 PUSH1 0x0 SWAP1 PUSH2 0x1661 JUMP JUMPDEST ADD MLOAD SWAP1 POP DUP7 DUP1 PUSH2 0x1620 JUMP JUMPDEST SWAP3 POP PUSH1 0xA DUP5 ADD PUSH1 0x0 MSTORE PUSH1 0x20 PUSH1 0x0 KECCAK256 SWAP1 PUSH1 0x0 SWAP4 JUMPDEST PUSH1 0x1F NOT DUP5 AND DUP6 LT PUSH2 0x173A JUMPI PUSH1 0x1 SWAP5 POP DUP4 PUSH1 0x1F NOT DUP2 AND LT PUSH2 0x1721 JUMPI JUMPDEST POP POP POP DUP2 SHL ADD PUSH1 0xA DUP3 ADD SSTORE PUSH2 0x1638 JUMP JUMPDEST ADD MLOAD PUSH1 0x0 NOT PUSH1 0xF8 DUP5 PUSH1 0x3 SHL AND SHR NOT AND SWAP1 SSTORE DUP7 DUP1 DUP1 PUSH2 0x1711 JUMP JUMPDEST DUP2 DUP2 ADD MLOAD DUP4 SSTORE PUSH1 0x20 SWAP5 DUP6 ADD SWAP5 PUSH1 0x1 SWAP1 SWAP4 ADD SWAP3 SWAP1 SWAP2 ADD SWAP1 PUSH2 0x16F6 JUMP JUMPDEST SWAP2 POP POP PUSH1 0xA DUP5 ADD PUSH1 0x0 MSTORE DUP3 PUSH1 0x20 PUSH1 0x0 KECCAK256 PUSH1 0x0 SWAP1 JUMPDEST DUP4 DUP3 LT PUSH2 0x1782 JUMPI POP SWAP1 SWAP2 DUP3 ADD PUSH1 0x20 ADD SWAP1 POP PUSH2 0x15E2 PUSH2 0x15A8 JUMP JUMPDEST PUSH1 0x20 SWAP2 SWAP3 POP DUP1 PUSH1 0x1 SWAP2 SLOAD DUP4 DUP6 DUP10 ADD ADD MSTORE ADD SWAP2 ADD DUP5 SWAP2 PUSH2 0x1769 JUMP JUMPDEST POP PUSH1 0xFF NOT DUP5 AND PUSH1 0x20 DUP1 DUP6 ADD SWAP2 SWAP1 SWAP2 MSTORE DUP2 ISZERO ISZERO SWAP1 SWAP2 MUL DUP4 ADD ADD SWAP1 POP PUSH2 0x15E2 PUSH2 0x15A8 JUMP JUMPDEST PUSH1 0x9 DUP3 ADD PUSH2 0x100 PUSH2 0xFF00 NOT DUP3 SLOAD AND OR SWAP1 SSTORE PUSH1 0xA DUP3 ADD PUSH2 0x17DD DUP2 SLOAD PUSH2 0x1A80 JUMP JUMPDEST PUSH1 0x1F DUP2 GT PUSH2 0x18AD JUMPI JUMPDEST POP PUSH1 0x5D DUP2 SSTORE PUSH1 0x0 MSTORE PUSH14 0x3530302520696E63726561736529 PUSH1 0x90 SHL PUSH1 0x1 PUSH1 0x20 PUSH1 0x0 KECCAK256 PUSH32 0x41626E6F726D616C207072696365207370696B6520646574656374656420283E DUP2 SSTORE ADD SSTORE PUSH1 0xB DUP3 ADD DUP1 SLOAD PUSH1 0x1E DUP2 GT PUSH1 0x0 EQ PUSH2 0x18A4 JUMPI PUSH1 0x1D NOT DUP2 ADD SWAP1 DUP2 GT PUSH2 0x644 JUMPI SWAP1 JUMPDEST SSTORE PUSH1 0x40 MLOAD PUSH1 0x20 DUP2 MSTORE PUSH1 0x14 PUSH1 0x20 DUP3 ADD MSTORE PUSH20 0x41626E6F726D616C207072696365207370696B65 PUSH1 0x60 SHL PUSH1 0x40 DUP3 ADD MSTORE PUSH32 0x9EC2F02A52D1CBE4470CCF0BA921147EFCD4728EB6330DCF53A326124E35CAF6 PUSH1 0x60 PUSH1 0x4 CALLDATALOAD SWAP3 LOG2 PUSH2 0x1427 JUMP JUMPDEST POP PUSH1 0x0 SWAP1 PUSH2 0x184B JUMP JUMPDEST PUSH2 0x18CC SWAP1 DUP3 PUSH1 0x0 MSTORE PUSH1 0x2 PUSH1 0x1F PUSH1 0x20 PUSH1 0x0 KECCAK256 SWAP3 ADD PUSH1 0x5 SHR DUP3 ADD SWAP2 ADD PUSH2 0x1C31 JUMP JUMPDEST DUP5 PUSH2 0x17E6 JUMP JUMPDEST CALLVALUE PUSH2 0x200 JUMPI PUSH1 0x20 CALLDATASIZE PUSH1 0x3 NOT ADD SLT PUSH2 0x200 JUMPI PUSH1 0x4 CALLDATALOAD PUSH1 0x0 MSTORE PUSH1 0x4 PUSH1 0x20 MSTORE PUSH1 0x20 PUSH1 0xFF PUSH1 0x40 PUSH1 0x0 KECCAK256 SLOAD AND PUSH1 0x40 MLOAD SWAP1 ISZERO ISZERO DUP2 MSTORE RETURN JUMPDEST CALLVALUE PUSH2 0x200 JUMPI PUSH1 0x0 CALLDATASIZE PUSH1 0x3 NOT ADD SLT PUSH2 0x200 JUMPI PUSH1 0x20 SWAP1 PUSH1 0x5 SLOAD DUP2 MSTORE RETURN JUMPDEST PUSH1 0x4 CALLDATALOAD SWAP1 PUSH1 0x1 PUSH1 0x1 PUSH1 0xA0 SHL SUB DUP3 AND DUP3 SUB PUSH2 0x200 JUMPI JUMP JUMPDEST PUSH1 0x5 GT ISZERO PUSH2 0x193E JUMPI JUMP JUMPDEST PUSH4 0x4E487B71 PUSH1 0xE0 SHL PUSH1 0x0 MSTORE PUSH1 0x21 PUSH1 0x4 MSTORE PUSH1 0x24 PUSH1 0x0 REVERT JUMPDEST PUSH1 0xA0 DUP2 ADD SWAP1 DUP2 LT PUSH1 0x1 PUSH1 0x1 PUSH1 0x40 SHL SUB DUP3 GT OR PUSH2 0xD36 JUMPI PUSH1 0x40 MSTORE JUMP JUMPDEST PUSH1 0x80 DUP2 ADD SWAP1 DUP2 LT PUSH1 0x1 PUSH1 0x1 PUSH1 0x40 SHL SUB DUP3 GT OR PUSH2 0xD36 JUMPI PUSH1 0x40 MSTORE JUMP JUMPDEST PUSH2 0x1A0 DUP2 ADD SWAP1 DUP2 LT PUSH1 0x1 PUSH1 0x1 PUSH1 0x40 SHL SUB DUP3 GT OR PUSH2 0xD36 JUMPI PUSH1 0x40 MSTORE JUMP JUMPDEST PUSH1 0x40 DUP2 ADD SWAP1 DUP2 LT PUSH1 0x1 PUSH1 0x1 PUSH1 0x40 SHL SUB DUP3 GT OR PUSH2 0xD36 JUMPI PUSH1 0x40 MSTORE JUMP JUMPDEST SWAP1 PUSH1 0x1F DUP1 NOT SWAP2 ADD AND DUP2 ADD SWAP1 DUP2 LT PUSH1 0x1 PUSH1 0x1 PUSH1 0x40 SHL SUB DUP3 GT OR PUSH2 0xD36 JUMPI PUSH1 0x40 MSTORE JUMP JUMPDEST DUP2 PUSH1 0x1F DUP3 ADD SLT ISZERO PUSH2 0x200 JUMPI DUP1 CALLDATALOAD SWAP1 PUSH1 0x1 PUSH1 0x1 PUSH1 0x40 SHL SUB DUP3 GT PUSH2 0xD36 JUMPI PUSH1 0x40 MLOAD SWAP3 PUSH2 0x1A16 PUSH1 0x1F DUP5 ADD PUSH1 0x1F NOT AND PUSH1 0x20 ADD DUP6 PUSH2 0x19C1 JUMP JUMPDEST DUP3 DUP5 MSTORE PUSH1 0x20 DUP4 DUP4 ADD ADD GT PUSH2 0x200 JUMPI DUP2 PUSH1 0x0 SWAP3 PUSH1 0x20 DUP1 SWAP4 ADD DUP4 DUP7 ADD CALLDATACOPY DUP4 ADD ADD MSTORE SWAP1 JUMP JUMPDEST PUSH1 0x40 SWAP1 PUSH1 0x3 NOT ADD SLT PUSH2 0x200 JUMPI PUSH1 0x4 CALLDATALOAD SWAP1 PUSH1 0x24 CALLDATALOAD SWAP1 JUMP JUMPDEST DUP1 SLOAD DUP3 LT ISZERO PUSH2 0x1A6A JUMPI PUSH1 0x0 MSTORE PUSH1 0x20 PUSH1 0x0 KECCAK256 SWAP1 PUSH1 0x2 SHL ADD SWAP1 PUSH1 0x0 SWAP1 JUMP JUMPDEST PUSH4 0x4E487B71 PUSH1 0xE0 SHL PUSH1 0x0 MSTORE PUSH1 0x32 PUSH1 0x4 MSTORE PUSH1 0x24 PUSH1 0x0 REVERT JUMPDEST SWAP1 PUSH1 0x1 DUP3 DUP2 SHR SWAP3 AND DUP1 ISZERO PUSH2 0x1AB0 JUMPI JUMPDEST PUSH1 0x20 DUP4 LT EQ PUSH2 0x1A9A JUMPI JUMP JUMPDEST PUSH4 0x4E487B71 PUSH1 0xE0 SHL PUSH1 0x0 MSTORE PUSH1 0x22 PUSH1 0x4 MSTORE PUSH1 0x24 PUSH1 0x0 REVERT JUMPDEST SWAP2 PUSH1 0x7F AND SWAP2 PUSH2 0x1A8F JUMP JUMPDEST SWAP1 PUSH1 0x40 MLOAD SWAP2 DUP3 PUSH1 0x0 DUP3 SLOAD SWAP3 PUSH2 0x1ACE DUP5 PUSH2 0x1A80 JUMP JUMPDEST SWAP1 DUP2 DUP5 MSTORE PUSH1 0x1 SWAP5 DUP6 DUP2 AND SWAP1 DUP2 PUSH1 0x0 EQ PUSH2 0x1B3D JUMPI POP PUSH1 0x1 EQ PUSH2 0x1AFA JUMPI JUMPDEST POP POP PUSH2 0x1AF8 SWAP3 POP SUB DUP4 PUSH2 0x19C1 JUMP JUMPDEST JUMP JUMPDEST SWAP1 SWAP4 SWAP2 POP PUSH1 0x0 MSTORE PUSH1 0x20 SWAP1 DUP2 PUSH1 0x0 KECCAK256 SWAP4 PUSH1 0x0 SWAP2 JUMPDEST DUP2 DUP4 LT PUSH2 0x1B25 JUMPI POP POP PUSH2 0x1AF8 SWAP4 POP DUP3 ADD ADD CODESIZE DUP1 PUSH2 0x1AEA JUMP JUMPDEST DUP6 SLOAD DUP9 DUP5 ADD DUP6 ADD MSTORE SWAP5 DUP6 ADD SWAP5 DUP8 SWAP5 POP SWAP2 DUP4 ADD SWAP2 PUSH2 0x1B0D JUMP JUMPDEST SWAP2 POP POP PUSH2 0x1AF8 SWAP5 POP PUSH1 0x20 SWAP3 POP PUSH1 0xFF NOT AND DUP3 DUP5 ADD MSTORE ISZERO ISZERO PUSH1 0x5 SHL DUP3 ADD ADD CODESIZE DUP1 PUSH2 0x1AEA JUMP JUMPDEST PUSH1 0x0 JUMPDEST DUP4 DUP2 LT PUSH2 0x1B73 JUMPI POP POP PUSH1 0x0 SWAP2 ADD MSTORE JUMP JUMPDEST DUP2 DUP2 ADD MLOAD DUP4 DUP3 ADD MSTORE PUSH1 0x20 ADD PUSH2 0x1B63 JUMP JUMPDEST SWAP1 PUSH1 0x20 SWAP2 PUSH2 0x1B9C DUP2 MLOAD DUP1 SWAP3 DUP2 DUP6 MSTORE DUP6 DUP1 DUP7 ADD SWAP2 ADD PUSH2 0x1B60 JUMP JUMPDEST PUSH1 0x1F ADD PUSH1 0x1F NOT AND ADD ADD SWAP1 JUMP JUMPDEST PUSH1 0x60 PUSH1 0x3 NOT DUP3 ADD SLT PUSH2 0x200 JUMPI PUSH1 0x4 CALLDATALOAD SWAP2 PUSH1 0x1 PUSH1 0x1 PUSH1 0x40 SHL SUB PUSH1 0x24 CALLDATALOAD DUP2 DUP2 GT PUSH2 0x200 JUMPI DUP4 PUSH2 0x1BD7 SWAP2 PUSH1 0x4 ADD PUSH2 0x19E2 JUMP JUMPDEST SWAP3 PUSH1 0x44 CALLDATALOAD SWAP2 DUP3 GT PUSH2 0x200 JUMPI PUSH2 0x1BEE SWAP2 PUSH1 0x4 ADD PUSH2 0x19E2 JUMP JUMPDEST SWAP1 JUMP JUMPDEST ISZERO PUSH2 0x1BF8 JUMPI JUMP JUMPDEST PUSH1 0x40 MLOAD PUSH3 0x461BCD PUSH1 0xE5 SHL DUP2 MSTORE PUSH1 0x20 PUSH1 0x4 DUP3 ADD MSTORE PUSH1 0x11 PUSH1 0x24 DUP3 ADD MSTORE PUSH17 0x556E617574686F72697A656420726F6C65 PUSH1 0x78 SHL PUSH1 0x44 DUP3 ADD MSTORE PUSH1 0x64 SWAP1 REVERT JUMPDEST DUP2 DUP2 LT PUSH2 0x1C3C JUMPI POP POP JUMP JUMPDEST PUSH1 0x0 DUP2 SSTORE PUSH1 0x1 ADD PUSH2 0x1C31 JUMP JUMPDEST SWAP2 SWAP1 PUSH1 0x1F DUP2 GT PUSH2 0x1C57 JUMPI POP POP POP JUMP JUMPDEST PUSH2 0x1AF8 SWAP3 PUSH1 0x0 MSTORE PUSH1 0x20 PUSH1 0x0 KECCAK256 SWAP1 PUSH1 0x20 PUSH1 0x1F DUP5 ADD PUSH1 0x5 SHR DUP4 ADD SWAP4 LT PUSH2 0x1C83 JUMPI JUMPDEST PUSH1 0x1F ADD PUSH1 0x5 SHR ADD SWAP1 PUSH2 0x1C31 JUMP JUMPDEST SWAP1 SWAP2 POP DUP2 SWAP1 PUSH2 0x1C76 JUMP JUMPDEST DUP1 SLOAD PUSH1 0x1 PUSH1 0x40 SHL DUP2 LT ISZERO PUSH2 0xD36 JUMPI PUSH2 0x1CAC SWAP1 PUSH1 0x1 SWAP3 DUP4 DUP3 ADD DUP2 SSTORE PUSH2 0x1A4E JUMP JUMPDEST PUSH2 0x1E96 JUMPI DUP3 MLOAD PUSH2 0x1CBB DUP2 PUSH2 0x1934 JUMP JUMPDEST PUSH2 0x1CC4 DUP2 PUSH2 0x1934 JUMP JUMPDEST DUP2 SLOAD PUSH1 0x20 DUP6 DUP2 ADD MLOAD PUSH1 0x1 PUSH1 0x1 PUSH1 0xA8 SHL SUB NOT SWAP1 SWAP3 AND PUSH1 0xFF SWAP4 SWAP1 SWAP4 AND SWAP3 SWAP1 SWAP3 OR PUSH1 0x8 SWAP2 SWAP1 SWAP2 SHL PUSH2 0x100 PUSH1 0x1 PUSH1 0xA8 SHL SUB AND OR DUP3 SSTORE PUSH1 0x40 DUP5 ADD MLOAD DUP1 MLOAD PUSH1 0x1 PUSH1 0x1 PUSH1 0x40 SHL SUB SWAP4 SWAP2 DUP6 DUP4 ADD SWAP2 SWAP1 DUP6 DUP3 GT PUSH2 0xD36 JUMPI PUSH2 0x1D26 DUP3 PUSH2 0x1D20 DUP6 SLOAD PUSH2 0x1A80 JUMP JUMPDEST DUP6 PUSH2 0x1C48 JUMP JUMPDEST DUP5 SWAP1 PUSH1 0x1F DUP4 GT PUSH1 0x1 EQ PUSH2 0x1E29 JUMPI SWAP2 DUP1 PUSH1 0x3 SWAP5 SWAP3 PUSH1 0x80 SWAP7 SWAP5 PUSH1 0x0 SWAP3 PUSH2 0x1E1E JUMPI JUMPDEST POP POP PUSH1 0x0 NOT DUP3 DUP7 SHL SHR NOT AND SWAP1 DUP9 SHL OR SWAP1 SSTORE JUMPDEST PUSH1 0x60 DUP8 ADD MLOAD PUSH1 0x2 DUP3 ADD SSTORE ADD SWAP5 ADD MLOAD DUP1 MLOAD SWAP3 DUP4 GT PUSH2 0xD36 JUMPI PUSH2 0x1D82 DUP4 PUSH2 0x1D7C DUP8 SLOAD PUSH2 0x1A80 JUMP JUMPDEST DUP8 PUSH2 0x1C48 JUMP JUMPDEST DUP2 PUSH1 0x1F DUP5 GT PUSH1 0x1 EQ PUSH2 0x1DBB JUMPI POP SWAP3 DUP3 SWAP4 SWAP2 DUP4 SWAP3 PUSH1 0x0 SWAP5 PUSH2 0x1DB0 JUMPI JUMPDEST POP POP SHL SWAP2 PUSH1 0x0 NOT SWAP1 PUSH1 0x3 SHL SHR NOT AND OR SWAP1 SSTORE JUMP JUMPDEST ADD MLOAD SWAP3 POP CODESIZE DUP1 PUSH2 0x1D9D JUMP JUMPDEST SWAP2 SWAP1 DUP4 PUSH1 0x1F NOT DUP2 AND DUP8 PUSH1 0x0 MSTORE DUP5 PUSH1 0x0 KECCAK256 SWAP5 PUSH1 0x0 SWAP1 JUMPDEST DUP9 DUP4 DUP4 LT PUSH2 0x1E04 JUMPI POP POP POP LT PUSH2 0x1DEB JUMPI JUMPDEST POP POP POP DUP2 SHL ADD SWAP1 SSTORE JUMP JUMPDEST ADD MLOAD PUSH1 0x0 NOT PUSH1 0xF8 DUP5 PUSH1 0x3 SHL AND SHR NOT AND SWAP1 SSTORE CODESIZE DUP1 DUP1 PUSH2 0x1DE1 JUMP JUMPDEST DUP6 DUP8 ADD MLOAD DUP9 SSTORE SWAP1 SWAP7 ADD SWAP6 SWAP5 DUP6 ADD SWAP5 DUP8 SWAP4 POP SWAP1 DUP2 ADD SWAP1 PUSH2 0x1DD0 JUMP JUMPDEST ADD MLOAD SWAP1 POP CODESIZE DUP1 PUSH2 0x1D45 JUMP JUMPDEST DUP8 SWAP3 SWAP2 PUSH1 0x1F NOT DUP4 AND SWAP2 DUP6 PUSH1 0x0 MSTORE DUP8 PUSH1 0x0 KECCAK256 SWAP3 PUSH1 0x0 JUMPDEST DUP10 DUP3 DUP3 LT PUSH2 0x1E80 JUMPI POP POP SWAP2 PUSH1 0x80 SWAP8 SWAP6 SWAP4 SWAP2 DUP6 PUSH1 0x3 SWAP9 SWAP7 SWAP5 LT PUSH2 0x1E68 JUMPI JUMPDEST POP POP POP DUP2 SHL ADD SWAP1 SSTORE PUSH2 0x1D57 JUMP JUMPDEST ADD MLOAD PUSH1 0x0 NOT DUP4 DUP9 SHL PUSH1 0xF8 AND SHR NOT AND SWAP1 SSTORE CODESIZE DUP1 DUP1 PUSH2 0x1E5B JUMP JUMPDEST DUP4 DUP6 ADD MLOAD DUP7 SSTORE DUP13 SWAP8 SWAP1 SWAP6 ADD SWAP5 SWAP4 DUP5 ADD SWAP4 ADD PUSH2 0x1E3E JUMP JUMPDEST PUSH4 0x4E487B71 PUSH1 0xE0 SHL PUSH1 0x0 MSTORE PUSH1 0x0 PUSH1 0x4 MSTORE PUSH1 0x24 PUSH1 0x0 REVERT JUMPDEST DUP1 SLOAD PUSH1 0x1 PUSH1 0x40 SHL DUP2 LT ISZERO PUSH2 0xD36 JUMPI PUSH2 0x1ECB SWAP1 PUSH1 0x1 SWAP3 DUP4 DUP3 ADD DUP2 SSTORE PUSH2 0x1A4E JUMP JUMPDEST PUSH2 0x1E96 JUMPI DUP3 MLOAD DUP2 SSTORE PUSH1 0x60 PUSH1 0x3 DUP4 DUP4 ADD SWAP3 PUSH1 0x20 SWAP4 PUSH1 0x1 DUP1 PUSH1 0xA0 SHL SUB DUP6 DUP9 ADD MLOAD AND PUSH12 0xFFFFFFFFFFFFFFFFFFFFFFFF PUSH1 0xA0 SHL DUP3 SLOAD AND OR SWAP1 SSTORE PUSH1 0x40 DUP7 ADD MLOAD PUSH1 0x2 DUP3 ADD SSTORE ADD SWAP4 ADD MLOAD SWAP1 DUP2 MLOAD SWAP2 PUSH1 0x1 PUSH1 0x1 PUSH1 0x40 SHL SUB DUP4 GT PUSH2 0xD36 JUMPI PUSH2 0x1F2E DUP4 PUSH2 0x1D7C DUP8 SLOAD PUSH2 0x1A80 JUMP JUMPDEST DUP2 PUSH1 0x1F DUP5 GT PUSH1 0x1 EQ PUSH2 0x1F5B JUMPI POP SWAP3 DUP3 SWAP4 SWAP2 DUP4 SWAP3 PUSH1 0x0 SWAP5 PUSH2 0x1DB0 JUMPI POP POP SHL SWAP2 PUSH1 0x0 NOT SWAP1 PUSH1 0x3 SHL SHR NOT AND OR SWAP1 SSTORE JUMP JUMPDEST SWAP2 SWAP1 DUP4 PUSH1 0x1F NOT DUP2 AND DUP8 PUSH1 0x0 MSTORE DUP5 PUSH1 0x0 KECCAK256 SWAP5 PUSH1 0x0 SWAP1 JUMPDEST DUP9 DUP4 DUP4 LT PUSH2 0x1F8A JUMPI POP POP POP LT PUSH2 0x1DEB JUMPI POP POP POP DUP2 SHL ADD SWAP1 SSTORE JUMP JUMPDEST DUP6 DUP8 ADD MLOAD DUP9 SSTORE SWAP1 SWAP7 ADD SWAP6 SWAP5 DUP6 ADD SWAP5 DUP8 SWAP4 POP SWAP1 DUP2 ADD SWAP1 PUSH2 0x1F70 JUMP JUMPDEST ISZERO PUSH2 0x1FAB JUMPI JUMP JUMPDEST PUSH1 0x40 MLOAD PUSH3 0x461BCD PUSH1 0xE5 SHL DUP2 MSTORE PUSH1 0x20 PUSH1 0x4 DUP3 ADD MSTORE PUSH1 0x14 PUSH1 0x24 DUP3 ADD MSTORE PUSH20 0x10985D18DA08191BD95CC81B9BDD08195E1A5CDD PUSH1 0x62 SHL PUSH1 0x44 DUP3 ADD MSTORE PUSH1 0x64 SWAP1 REVERT JUMPDEST PUSH1 0x1 PUSH1 0x1 PUSH1 0x40 SHL SUB DUP2 GT PUSH2 0xD36 JUMPI PUSH1 0x5 SHL PUSH1 0x20 ADD SWAP1 JUMP INVALID LOG2 PUSH5 0x6970667358 0x22 SLT KECCAK256 SGT ADD 0xDC 0xDD 0xAB GAS MSIZE PUSH26 0xCA28DD1238A3BDE9960E5D4209B500F93955E493CB0367686473 PUSH16 0x6C634300081300330000000000000000 "},"methodIdentifiers":{"assignRole(address,uint8)":"630a195b","batchCount()":"06f13056","batches(uint256)":"b32c4d8d","confirmSale(uint256,string,string)":"742a7d3b","createBatch(string,string,string,uint256,uint256,uint256)":"61e6a027","getBatch(uint256)":"5ac44282","getPriceHistory(uint256)":"fd1a98a5","getSupplyChainSteps(uint256)":"f52a5839","getUserRole(address)":"27820851","owner()":"8da5cb5b","priceHistories(uint256,uint256)":"4bd738c7","productHashes(bytes32)":"2aca09ca","supplyChainSteps(uint256,uint256)":"49799c77","updateRetailPrice(uint256,uint256,string)":"45570c7d","updateShipment(uint256,string,string)":"53105b04","userRoles(address)":"74d5e100"}}}}}